{
  "contractName": "CryptoLienzNFT",
  "abi": [
    {
      "inputs": [],
      "stateMutability": "nonpayable",
      "type": "constructor"
    },
    {
      "anonymous": false,
      "inputs": [
        {
          "indexed": true,
          "internalType": "address",
          "name": "owner",
          "type": "address"
        },
        {
          "indexed": true,
          "internalType": "address",
          "name": "approved",
          "type": "address"
        },
        {
          "indexed": true,
          "internalType": "uint256",
          "name": "tokenId",
          "type": "uint256"
        }
      ],
      "name": "Approval",
      "type": "event"
    },
    {
      "anonymous": false,
      "inputs": [
        {
          "indexed": true,
          "internalType": "address",
          "name": "owner",
          "type": "address"
        },
        {
          "indexed": true,
          "internalType": "address",
          "name": "operator",
          "type": "address"
        },
        {
          "indexed": false,
          "internalType": "bool",
          "name": "approved",
          "type": "bool"
        }
      ],
      "name": "ApprovalForAll",
      "type": "event"
    },
    {
      "anonymous": false,
      "inputs": [
        {
          "indexed": true,
          "internalType": "address",
          "name": "_from",
          "type": "address"
        },
        {
          "indexed": false,
          "internalType": "string",
          "name": "url",
          "type": "string"
        },
        {
          "indexed": false,
          "internalType": "uint256",
          "name": "times",
          "type": "uint256"
        }
      ],
      "name": "MintNFT",
      "type": "event"
    },
    {
      "anonymous": false,
      "inputs": [
        {
          "indexed": true,
          "internalType": "address",
          "name": "previousOwner",
          "type": "address"
        },
        {
          "indexed": true,
          "internalType": "address",
          "name": "newOwner",
          "type": "address"
        }
      ],
      "name": "OwnershipTransferred",
      "type": "event"
    },
    {
      "anonymous": false,
      "inputs": [
        {
          "indexed": true,
          "internalType": "address",
          "name": "from",
          "type": "address"
        },
        {
          "indexed": true,
          "internalType": "address",
          "name": "to",
          "type": "address"
        },
        {
          "indexed": true,
          "internalType": "uint256",
          "name": "tokenId",
          "type": "uint256"
        }
      ],
      "name": "Transfer",
      "type": "event"
    },
    {
      "inputs": [
        {
          "internalType": "address",
          "name": "to",
          "type": "address"
        },
        {
          "internalType": "uint256",
          "name": "tokenId",
          "type": "uint256"
        }
      ],
      "name": "approve",
      "outputs": [],
      "stateMutability": "nonpayable",
      "type": "function"
    },
    {
      "inputs": [
        {
          "internalType": "address",
          "name": "owner",
          "type": "address"
        }
      ],
      "name": "balanceOf",
      "outputs": [
        {
          "internalType": "uint256",
          "name": "",
          "type": "uint256"
        }
      ],
      "stateMutability": "view",
      "type": "function",
      "constant": true
    },
    {
      "inputs": [
        {
          "internalType": "uint256",
          "name": "tokenId",
          "type": "uint256"
        }
      ],
      "name": "getApproved",
      "outputs": [
        {
          "internalType": "address",
          "name": "",
          "type": "address"
        }
      ],
      "stateMutability": "view",
      "type": "function",
      "constant": true
    },
    {
      "inputs": [
        {
          "internalType": "address",
          "name": "owner",
          "type": "address"
        },
        {
          "internalType": "address",
          "name": "operator",
          "type": "address"
        }
      ],
      "name": "isApprovedForAll",
      "outputs": [
        {
          "internalType": "bool",
          "name": "",
          "type": "bool"
        }
      ],
      "stateMutability": "view",
      "type": "function",
      "constant": true
    },
    {
      "inputs": [],
      "name": "maxBatch",
      "outputs": [
        {
          "internalType": "uint256",
          "name": "",
          "type": "uint256"
        }
      ],
      "stateMutability": "view",
      "type": "function",
      "constant": true
    },
    {
      "inputs": [],
      "name": "minter",
      "outputs": [
        {
          "internalType": "address payable",
          "name": "",
          "type": "address"
        }
      ],
      "stateMutability": "view",
      "type": "function",
      "constant": true
    },
    {
      "inputs": [],
      "name": "name",
      "outputs": [
        {
          "internalType": "string",
          "name": "",
          "type": "string"
        }
      ],
      "stateMutability": "view",
      "type": "function",
      "constant": true
    },
    {
      "inputs": [],
      "name": "owner",
      "outputs": [
        {
          "internalType": "address",
          "name": "",
          "type": "address"
        }
      ],
      "stateMutability": "view",
      "type": "function",
      "constant": true
    },
    {
      "inputs": [
        {
          "internalType": "uint256",
          "name": "tokenId",
          "type": "uint256"
        }
      ],
      "name": "ownerOf",
      "outputs": [
        {
          "internalType": "address",
          "name": "",
          "type": "address"
        }
      ],
      "stateMutability": "view",
      "type": "function",
      "constant": true
    },
    {
      "inputs": [],
      "name": "price",
      "outputs": [
        {
          "internalType": "uint256",
          "name": "",
          "type": "uint256"
        }
      ],
      "stateMutability": "view",
      "type": "function",
      "constant": true
    },
    {
      "inputs": [],
      "name": "renounceOwnership",
      "outputs": [],
      "stateMutability": "nonpayable",
      "type": "function"
    },
    {
      "inputs": [
        {
          "internalType": "address",
          "name": "from",
          "type": "address"
        },
        {
          "internalType": "address",
          "name": "to",
          "type": "address"
        },
        {
          "internalType": "uint256",
          "name": "tokenId",
          "type": "uint256"
        }
      ],
      "name": "safeTransferFrom",
      "outputs": [],
      "stateMutability": "nonpayable",
      "type": "function"
    },
    {
      "inputs": [
        {
          "internalType": "address",
          "name": "from",
          "type": "address"
        },
        {
          "internalType": "address",
          "name": "to",
          "type": "address"
        },
        {
          "internalType": "uint256",
          "name": "tokenId",
          "type": "uint256"
        },
        {
          "internalType": "bytes",
          "name": "_data",
          "type": "bytes"
        }
      ],
      "name": "safeTransferFrom",
      "outputs": [],
      "stateMutability": "nonpayable",
      "type": "function"
    },
    {
      "inputs": [
        {
          "internalType": "address",
          "name": "operator",
          "type": "address"
        },
        {
          "internalType": "bool",
          "name": "approved",
          "type": "bool"
        }
      ],
      "name": "setApprovalForAll",
      "outputs": [],
      "stateMutability": "nonpayable",
      "type": "function"
    },
    {
      "inputs": [],
      "name": "started",
      "outputs": [
        {
          "internalType": "bool",
          "name": "",
          "type": "bool"
        }
      ],
      "stateMutability": "view",
      "type": "function",
      "constant": true
    },
    {
      "inputs": [
        {
          "internalType": "bytes4",
          "name": "interfaceId",
          "type": "bytes4"
        }
      ],
      "name": "supportsInterface",
      "outputs": [
        {
          "internalType": "bool",
          "name": "",
          "type": "bool"
        }
      ],
      "stateMutability": "view",
      "type": "function",
      "constant": true
    },
    {
      "inputs": [],
      "name": "symbol",
      "outputs": [
        {
          "internalType": "string",
          "name": "",
          "type": "string"
        }
      ],
      "stateMutability": "view",
      "type": "function",
      "constant": true
    },
    {
      "inputs": [
        {
          "internalType": "uint256",
          "name": "tokenId",
          "type": "uint256"
        }
      ],
      "name": "tokenURI",
      "outputs": [
        {
          "internalType": "string",
          "name": "",
          "type": "string"
        }
      ],
      "stateMutability": "view",
      "type": "function",
      "constant": true
    },
    {
      "inputs": [],
      "name": "totalCount",
      "outputs": [
        {
          "internalType": "uint256",
          "name": "",
          "type": "uint256"
        }
      ],
      "stateMutability": "view",
      "type": "function",
      "constant": true
    },
    {
      "inputs": [
        {
          "internalType": "address",
          "name": "from",
          "type": "address"
        },
        {
          "internalType": "address",
          "name": "to",
          "type": "address"
        },
        {
          "internalType": "uint256",
          "name": "tokenId",
          "type": "uint256"
        }
      ],
      "name": "transferFrom",
      "outputs": [],
      "stateMutability": "nonpayable",
      "type": "function"
    },
    {
      "inputs": [
        {
          "internalType": "address",
          "name": "newOwner",
          "type": "address"
        }
      ],
      "name": "transferOwnership",
      "outputs": [],
      "stateMutability": "nonpayable",
      "type": "function"
    },
    {
      "inputs": [
        {
          "internalType": "uint256",
          "name": "_times",
          "type": "uint256"
        }
      ],
      "name": "mintNFT",
      "outputs": [],
      "stateMutability": "payable",
      "type": "function",
      "payable": true
    },
    {
      "inputs": [],
      "name": "totalSupply",
      "outputs": [
        {
          "internalType": "uint256",
          "name": "",
          "type": "uint256"
        }
      ],
      "stateMutability": "view",
      "type": "function",
      "constant": true
    },
    {
      "inputs": [
        {
          "internalType": "bool",
          "name": "_start",
          "type": "bool"
        }
      ],
      "name": "setStart",
      "outputs": [],
      "stateMutability": "nonpayable",
      "type": "function"
    },
    {
      "inputs": [],
      "name": "baseTokenURI",
      "outputs": [
        {
          "internalType": "string",
          "name": "",
          "type": "string"
        }
      ],
      "stateMutability": "view",
      "type": "function",
      "constant": true
    },
    {
      "inputs": [
        {
          "internalType": "string",
          "name": "_baseURI",
          "type": "string"
        }
      ],
      "name": "setBaseTokenURI",
      "outputs": [],
      "stateMutability": "nonpayable",
      "type": "function"
    }
  ],
  "bytecode": "0x60806040526005600a5560c8600b5566d529ae9e860000600c556000600d60006101000a81548160ff02191690831515021790555060405180602001604052806000815250600e90805190602001906200005b9291906200023f565b503480156200006957600080fd5b506040518060400160405280600e81526020017f43727970746f4c69656e7a4e46540000000000000000000000000000000000008152506040518060400160405280600581526020017f434c4e46540000000000000000000000000000000000000000000000000000008152508160009080519060200190620000ee9291906200023f565b508060019080519060200190620001079291906200023f565b5050506200012a6200011e6200017160201b60201c565b6200017960201b60201c565b33600960006101000a81548173ffffffffffffffffffffffffffffffffffffffff021916908373ffffffffffffffffffffffffffffffffffffffff16021790555062000354565b600033905090565b6000600760009054906101000a900473ffffffffffffffffffffffffffffffffffffffff16905081600760006101000a81548173ffffffffffffffffffffffffffffffffffffffff021916908373ffffffffffffffffffffffffffffffffffffffff1602179055508173ffffffffffffffffffffffffffffffffffffffff168173ffffffffffffffffffffffffffffffffffffffff167f8be0079c531659141344cd1fd0a4f28419497f9722a3daafe3b4186f6b6457e060405160405180910390a35050565b8280546200024d90620002ef565b90600052602060002090601f016020900481019282620002715760008555620002bd565b82601f106200028c57805160ff1916838001178555620002bd565b82800160010185558215620002bd579182015b82811115620002bc5782518255916020019190600101906200029f565b5b509050620002cc9190620002d0565b5090565b5b80821115620002eb576000816000905550600101620002d1565b5090565b600060028204905060018216806200030857607f821691505b602082108114156200031f576200031e62000325565b5b50919050565b7f4e487b7100000000000000000000000000000000000000000000000000000000600052602260045260246000fd5b613b0180620003646000396000f3fe6080604052600436106101815760003560e01c806368e24327116100d1578063a035b1fe1161008a578063c87b56dd11610064578063c87b56dd1461054f578063d547cfb71461058c578063e985e9c5146105b7578063f2fde38b146105f457610181565b8063a035b1fe146104d2578063a22cb465146104fd578063b88d4fde1461052657610181565b806368e24327146103e357806370a082311461040c578063715018a6146104495780638da5cb5b14610460578063926427441461048b57806395d89b41146104a757610181565b80631f2698ab1161013e57806334eafb111161011857806334eafb111461032757806342842e0e146103525780636352211e1461037b57806367765b87146103b857610181565b80631f2698ab146102aa57806323b872dd146102d557806330176e13146102fe57610181565b806301ffc9a71461018657806306fdde03146101c357806307546172146101ee578063081812fc14610219578063095ea7b31461025657806318160ddd1461027f575b600080fd5b34801561019257600080fd5b506101ad60048036038101906101a891906126c0565b61061d565b6040516101ba9190612cba565b60405180910390f35b3480156101cf57600080fd5b506101d86106ff565b6040516101e59190612cd5565b60405180910390f35b3480156101fa57600080fd5b50610203610791565b6040516102109190612c53565b60405180910390f35b34801561022557600080fd5b50610240600480360381019061023b9190612763565b6107b7565b60405161024d9190612c38565b60405180910390f35b34801561026257600080fd5b5061027d60048036038101906102789190612653565b61083c565b005b34801561028b57600080fd5b50610294610954565b6040516102a19190612fe7565b60405180910390f35b3480156102b657600080fd5b506102bf610965565b6040516102cc9190612cba565b60405180910390f35b3480156102e157600080fd5b506102fc60048036038101906102f7919061253d565b610978565b005b34801561030a57600080fd5b506103256004803603810190610320919061271a565b6109d8565b005b34801561033357600080fd5b5061033c610a4c565b6040516103499190612fe7565b60405180910390f35b34801561035e57600080fd5b506103796004803603810190610374919061253d565b610a52565b005b34801561038757600080fd5b506103a2600480360381019061039d9190612763565b610a72565b6040516103af9190612c38565b60405180910390f35b3480156103c457600080fd5b506103cd610b24565b6040516103da9190612fe7565b60405180910390f35b3480156103ef57600080fd5b5061040a60048036038101906104059190612693565b610b2a565b005b34801561041857600080fd5b50610433600480360381019061042e91906124d0565b610ba1565b6040516104409190612fe7565b60405180910390f35b34801561045557600080fd5b5061045e610c59565b005b34801561046c57600080fd5b50610475610ce1565b6040516104829190612c38565b60405180910390f35b6104a560048036038101906104a09190612763565b610d0b565b005b3480156104b357600080fd5b506104bc610f69565b6040516104c99190612cd5565b60405180910390f35b3480156104de57600080fd5b506104e7610ffb565b6040516104f49190612fe7565b60405180910390f35b34801561050957600080fd5b50610524600480360381019061051f9190612613565b611001565b005b34801561053257600080fd5b5061054d60048036038101906105489190612590565b611017565b005b34801561055b57600080fd5b5061057660048036038101906105719190612763565b611079565b6040516105839190612cd5565b60405180910390f35b34801561059857600080fd5b506105a16111cb565b6040516105ae9190612cd5565b60405180910390f35b3480156105c357600080fd5b506105de60048036038101906105d991906124fd565b61125d565b6040516105eb9190612cba565b60405180910390f35b34801561060057600080fd5b5061061b600480360381019061061691906124d0565b6112f1565b005b60007f80ac58cd000000000000000000000000000000000000000000000000000000007bffffffffffffffffffffffffffffffffffffffffffffffffffffffff1916827bffffffffffffffffffffffffffffffffffffffffffffffffffffffff191614806106e857507f5b5e139f000000000000000000000000000000000000000000000000000000007bffffffffffffffffffffffffffffffffffffffffffffffffffffffff1916827bffffffffffffffffffffffffffffffffffffffffffffffffffffffff1916145b806106f857506106f7826113e9565b5b9050919050565b60606000805461070e906132e8565b80601f016020809104026020016040519081016040528092919081815260200182805461073a906132e8565b80156107875780601f1061075c57610100808354040283529160200191610787565b820191906000526020600020905b81548152906001019060200180831161076a57829003601f168201915b5050505050905090565b600960009054906101000a900473ffffffffffffffffffffffffffffffffffffffff1681565b60006107c282611453565b610801576040517f08c379a00000000000000000000000000000000000000000000000000000000081526004016107f890612f07565b60405180910390fd5b6004600083815260200190815260200160002060009054906101000a900473ffffffffffffffffffffffffffffffffffffffff169050919050565b600061084782610a72565b90508073ffffffffffffffffffffffffffffffffffffffff168373ffffffffffffffffffffffffffffffffffffffff1614156108b8576040517f08c379a00000000000000000000000000000000000000000000000000000000081526004016108af90612f87565b60405180910390fd5b8073ffffffffffffffffffffffffffffffffffffffff166108d76114bf565b73ffffffffffffffffffffffffffffffffffffffff1614806109065750610905816109006114bf565b61125d565b5b610945576040517f08c379a000000000000000000000000000000000000000000000000000000000815260040161093c90612e47565b60405180910390fd5b61094f83836114c7565b505050565b60006109606008611580565b905090565b600d60009054906101000a900460ff1681565b6109896109836114bf565b8261158e565b6109c8576040517f08c379a00000000000000000000000000000000000000000000000000000000081526004016109bf90612fa7565b60405180910390fd5b6109d383838361166c565b505050565b600960009054906101000a900473ffffffffffffffffffffffffffffffffffffffff1673ffffffffffffffffffffffffffffffffffffffff163373ffffffffffffffffffffffffffffffffffffffff1614610a3257600080fd5b80600e9080519060200190610a489291906122e4565b5050565b600b5481565b610a6d83838360405180602001604052806000815250611017565b505050565b6000806002600084815260200190815260200160002060009054906101000a900473ffffffffffffffffffffffffffffffffffffffff169050600073ffffffffffffffffffffffffffffffffffffffff168173ffffffffffffffffffffffffffffffffffffffff161415610b1b576040517f08c379a0000000000000000000000000000000000000000000000000000000008152600401610b1290612e87565b60405180910390fd5b80915050919050565b600a5481565b600960009054906101000a900473ffffffffffffffffffffffffffffffffffffffff1673ffffffffffffffffffffffffffffffffffffffff163373ffffffffffffffffffffffffffffffffffffffff1614610b8457600080fd5b80600d60006101000a81548160ff02191690831515021790555050565b60008073ffffffffffffffffffffffffffffffffffffffff168273ffffffffffffffffffffffffffffffffffffffff161415610c12576040517f08c379a0000000000000000000000000000000000000000000000000000000008152600401610c0990612e67565b60405180910390fd5b600360008373ffffffffffffffffffffffffffffffffffffffff1673ffffffffffffffffffffffffffffffffffffffff168152602001908152602001600020549050919050565b610c616114bf565b73ffffffffffffffffffffffffffffffffffffffff16610c7f610ce1565b73ffffffffffffffffffffffffffffffffffffffff1614610cd5576040517f08c379a0000000000000000000000000000000000000000000000000000000008152600401610ccc90612f27565b60405180910390fd5b610cdf60006118c8565b565b6000600760009054906101000a900473ffffffffffffffffffffffffffffffffffffffff16905090565b600d60009054906101000a900460ff16610d5a576040517f08c379a0000000000000000000000000000000000000000000000000000000008152600401610d5190612fc7565b60405180910390fd5b600081118015610d6c5750600a548111155b610dab576040517f08c379a0000000000000000000000000000000000000000000000000000000008152600401610da290612dc7565b60405180910390fd5b600b5481610db96008611580565b610dc391906130e1565b1115610e04576040517f08c379a0000000000000000000000000000000000000000000000000000000008152600401610dfb90612d47565b60405180910390fd5b600c5481610e129190613168565b3414610e53576040517f08c379a0000000000000000000000000000000000000000000000000000000008152600401610e4a90612da7565b60405180910390fd5b60005b81811015610f6557610e68600861198e565b6000610e746008611580565b9050610e8033826119a4565b6000600e610e8d83611b72565b604051602001610e9e929190612c14565b60405160208183030381529060405290503373ffffffffffffffffffffffffffffffffffffffff167f28c48897c00eeaf23cf918f3d080d78bafea4bf929e963d04d1683db110de3508286604051610ef7929190612cf7565b60405180910390a2610f098282611cd9565b3373ffffffffffffffffffffffffffffffffffffffff166108fc349081150290604051600060405180830381858888f19350505050158015610f4f573d6000803e3d6000fd5b5050508080610f5d9061334b565b915050610e56565b5050565b606060018054610f78906132e8565b80601f0160208091040260200160405190810160405280929190818152602001828054610fa4906132e8565b8015610ff15780601f10610fc657610100808354040283529160200191610ff1565b820191906000526020600020905b815481529060010190602001808311610fd457829003601f168201915b5050505050905090565b600c5481565b61101361100c6114bf565b8383611d4d565b5050565b6110286110226114bf565b8361158e565b611067576040517f08c379a000000000000000000000000000000000000000000000000000000000815260040161105e90612fa7565b60405180910390fd5b61107384848484611eba565b50505050565b606061108482611453565b6110c3576040517f08c379a00000000000000000000000000000000000000000000000000000000081526004016110ba90612ee7565b60405180910390fd5b60006006600084815260200190815260200160002080546110e3906132e8565b80601f016020809104026020016040519081016040528092919081815260200182805461110f906132e8565b801561115c5780601f106111315761010080835404028352916020019161115c565b820191906000526020600020905b81548152906001019060200180831161113f57829003601f168201915b50505050509050600061116d611f16565b90506000815114156111835781925050506111c6565b6000825111156111b85780826040516020016111a0929190612bf0565b604051602081830303815290604052925050506111c6565b6111c184611f2d565b925050505b919050565b6060600e80546111da906132e8565b80601f0160208091040260200160405190810160405280929190818152602001828054611206906132e8565b80156112535780601f1061122857610100808354040283529160200191611253565b820191906000526020600020905b81548152906001019060200180831161123657829003601f168201915b5050505050905090565b6000600560008473ffffffffffffffffffffffffffffffffffffffff1673ffffffffffffffffffffffffffffffffffffffff16815260200190815260200160002060008373ffffffffffffffffffffffffffffffffffffffff1673ffffffffffffffffffffffffffffffffffffffff16815260200190815260200160002060009054906101000a900460ff16905092915050565b6112f96114bf565b73ffffffffffffffffffffffffffffffffffffffff16611317610ce1565b73ffffffffffffffffffffffffffffffffffffffff161461136d576040517f08c379a000000000000000000000000000000000000000000000000000000000815260040161136490612f27565b60405180910390fd5b600073ffffffffffffffffffffffffffffffffffffffff168173ffffffffffffffffffffffffffffffffffffffff1614156113dd576040517f08c379a00000000000000000000000000000000000000000000000000000000081526004016113d490612d67565b60405180910390fd5b6113e6816118c8565b50565b60007f01ffc9a7000000000000000000000000000000000000000000000000000000007bffffffffffffffffffffffffffffffffffffffffffffffffffffffff1916827bffffffffffffffffffffffffffffffffffffffffffffffffffffffff1916149050919050565b60008073ffffffffffffffffffffffffffffffffffffffff166002600084815260200190815260200160002060009054906101000a900473ffffffffffffffffffffffffffffffffffffffff1673ffffffffffffffffffffffffffffffffffffffff1614159050919050565b600033905090565b816004600083815260200190815260200160002060006101000a81548173ffffffffffffffffffffffffffffffffffffffff021916908373ffffffffffffffffffffffffffffffffffffffff160217905550808273ffffffffffffffffffffffffffffffffffffffff1661153a83610a72565b73ffffffffffffffffffffffffffffffffffffffff167f8c5be1e5ebec7d5bd14f71427d1e84f3dd0314c0f7b2291e5b200ac8c7c3b92560405160405180910390a45050565b600081600001549050919050565b600061159982611453565b6115d8576040517f08c379a00000000000000000000000000000000000000000000000000000000081526004016115cf90612e27565b60405180910390fd5b60006115e383610a72565b90508073ffffffffffffffffffffffffffffffffffffffff168473ffffffffffffffffffffffffffffffffffffffff16148061165257508373ffffffffffffffffffffffffffffffffffffffff1661163a846107b7565b73ffffffffffffffffffffffffffffffffffffffff16145b806116635750611662818561125d565b5b91505092915050565b8273ffffffffffffffffffffffffffffffffffffffff1661168c82610a72565b73ffffffffffffffffffffffffffffffffffffffff16146116e2576040517f08c379a00000000000000000000000000000000000000000000000000000000081526004016116d990612f47565b60405180910390fd5b600073ffffffffffffffffffffffffffffffffffffffff168273ffffffffffffffffffffffffffffffffffffffff161415611752576040517f08c379a000000000000000000000000000000000000000000000000000000000815260040161174990612de7565b60405180910390fd5b61175d838383611fd4565b6117686000826114c7565b6001600360008573ffffffffffffffffffffffffffffffffffffffff1673ffffffffffffffffffffffffffffffffffffffff16815260200190815260200160002060008282546117b891906131c2565b925050819055506001600360008473ffffffffffffffffffffffffffffffffffffffff1673ffffffffffffffffffffffffffffffffffffffff168152602001908152602001600020600082825461180f91906130e1565b92505081905550816002600083815260200190815260200160002060006101000a81548173ffffffffffffffffffffffffffffffffffffffff021916908373ffffffffffffffffffffffffffffffffffffffff160217905550808273ffffffffffffffffffffffffffffffffffffffff168473ffffffffffffffffffffffffffffffffffffffff167fddf252ad1be2c89b69c2b068fc378daa952ba7f163c4a11628f55a4df523b3ef60405160405180910390a4505050565b6000600760009054906101000a900473ffffffffffffffffffffffffffffffffffffffff16905081600760006101000a81548173ffffffffffffffffffffffffffffffffffffffff021916908373ffffffffffffffffffffffffffffffffffffffff1602179055508173ffffffffffffffffffffffffffffffffffffffff168173ffffffffffffffffffffffffffffffffffffffff167f8be0079c531659141344cd1fd0a4f28419497f9722a3daafe3b4186f6b6457e060405160405180910390a35050565b6001816000016000828254019250508190555050565b600073ffffffffffffffffffffffffffffffffffffffff168273ffffffffffffffffffffffffffffffffffffffff161415611a14576040517f08c379a0000000000000000000000000000000000000000000000000000000008152600401611a0b90612ec7565b60405180910390fd5b611a1d81611453565b15611a5d576040517f08c379a0000000000000000000000000000000000000000000000000000000008152600401611a5490612d87565b60405180910390fd5b611a6960008383611fd4565b6001600360008473ffffffffffffffffffffffffffffffffffffffff1673ffffffffffffffffffffffffffffffffffffffff1681526020019081526020016000206000828254611ab991906130e1565b92505081905550816002600083815260200190815260200160002060006101000a81548173ffffffffffffffffffffffffffffffffffffffff021916908373ffffffffffffffffffffffffffffffffffffffff160217905550808273ffffffffffffffffffffffffffffffffffffffff16600073ffffffffffffffffffffffffffffffffffffffff167fddf252ad1be2c89b69c2b068fc378daa952ba7f163c4a11628f55a4df523b3ef60405160405180910390a45050565b60606000821415611bba576040518060400160405280600181526020017f30000000000000000000000000000000000000000000000000000000000000008152509050611cd4565b600082905060005b60008214611bec578080611bd59061334b565b915050600a82611be59190613137565b9150611bc2565b60008167ffffffffffffffff811115611c0857611c07613481565b5b6040519080825280601f01601f191660200182016040528015611c3a5781602001600182028036833780820191505090505b50905060008290508593505b60008414611ccc57600a84611c5b9190613394565b6030611c6791906130e1565b60f81b8282611c75906132be565b92508281518110611c8957611c88613452565b5b60200101907effffffffffffffffffffffffffffffffffffffffffffffffffffffffffffff1916908160001a905350600a84611cc59190613137565b9350611c46565b819450505050505b919050565b611ce282611453565b611d21576040517f08c379a0000000000000000000000000000000000000000000000000000000008152600401611d1890612ea7565b60405180910390fd5b80600660008481526020019081526020016000209080519060200190611d489291906122e4565b505050565b8173ffffffffffffffffffffffffffffffffffffffff168373ffffffffffffffffffffffffffffffffffffffff161415611dbc576040517f08c379a0000000000000000000000000000000000000000000000000000000008152600401611db390612e07565b60405180910390fd5b80600560008573ffffffffffffffffffffffffffffffffffffffff1673ffffffffffffffffffffffffffffffffffffffff16815260200190815260200160002060008473ffffffffffffffffffffffffffffffffffffffff1673ffffffffffffffffffffffffffffffffffffffff16815260200190815260200160002060006101000a81548160ff0219169083151502179055508173ffffffffffffffffffffffffffffffffffffffff168373ffffffffffffffffffffffffffffffffffffffff167f17307eab39ab6107e8899845ad3d59bd9653f200f220920489ca2b5937696c3183604051611ead9190612cba565b60405180910390a3505050565b611ec584848461166c565b611ed184848484611fd9565b611f10576040517f08c379a0000000000000000000000000000000000000000000000000000000008152600401611f0790612d27565b60405180910390fd5b50505050565b606060405180602001604052806000815250905090565b6060611f3882611453565b611f77576040517f08c379a0000000000000000000000000000000000000000000000000000000008152600401611f6e90612f67565b60405180910390fd5b6000611f81611f16565b90506000815111611fa15760405180602001604052806000815250611fcc565b80611fab84612170565b604051602001611fbc929190612bf0565b6040516020818303038152906040525b915050919050565b505050565b6000611ffa8473ffffffffffffffffffffffffffffffffffffffff166122d1565b15612163578373ffffffffffffffffffffffffffffffffffffffff1663150b7a026120236114bf565b8786866040518563ffffffff1660e01b81526004016120459493929190612c6e565b602060405180830381600087803b15801561205f57600080fd5b505af192505050801561209057506040513d601f19601f8201168201806040525081019061208d91906126ed565b60015b612113573d80600081146120c0576040519150601f19603f3d011682016040523d82523d6000602084013e6120c5565b606091505b5060008151141561210b576040517f08c379a000000000000000000000000000000000000000000000000000000000815260040161210290612d27565b60405180910390fd5b805181602001fd5b63150b7a0260e01b7bffffffffffffffffffffffffffffffffffffffffffffffffffffffff1916817bffffffffffffffffffffffffffffffffffffffffffffffffffffffff191614915050612168565b600190505b949350505050565b606060008214156121b8576040518060400160405280600181526020017f300000000000000000000000000000000000000000000000000000000000000081525090506122cc565b600082905060005b600082146121ea5780806121d39061334b565b915050600a826121e39190613137565b91506121c0565b60008167ffffffffffffffff81111561220657612205613481565b5b6040519080825280601f01601f1916602001820160405280156122385781602001600182028036833780820191505090505b5090505b600085146122c55760018261225191906131c2565b9150600a856122609190613394565b603061226c91906130e1565b60f81b81838151811061228257612281613452565b5b60200101907effffffffffffffffffffffffffffffffffffffffffffffffffffffffffffff1916908160001a905350600a856122be9190613137565b945061223c565b8093505050505b919050565b600080823b905060008111915050919050565b8280546122f0906132e8565b90600052602060002090601f0160209004810192826123125760008555612359565b82601f1061232b57805160ff1916838001178555612359565b82800160010185558215612359579182015b8281111561235857825182559160200191906001019061233d565b5b509050612366919061236a565b5090565b5b8082111561238357600081600090555060010161236b565b5090565b600061239a61239584613027565b613002565b9050828152602081018484840111156123b6576123b56134b5565b5b6123c184828561327c565b509392505050565b60006123dc6123d784613058565b613002565b9050828152602081018484840111156123f8576123f76134b5565b5b61240384828561327c565b509392505050565b60008135905061241a81613a6f565b92915050565b60008135905061242f81613a86565b92915050565b60008135905061244481613a9d565b92915050565b60008151905061245981613a9d565b92915050565b600082601f830112612474576124736134b0565b5b8135612484848260208601612387565b91505092915050565b600082601f8301126124a2576124a16134b0565b5b81356124b28482602086016123c9565b91505092915050565b6000813590506124ca81613ab4565b92915050565b6000602082840312156124e6576124e56134bf565b5b60006124f48482850161240b565b91505092915050565b60008060408385031215612514576125136134bf565b5b60006125228582860161240b565b92505060206125338582860161240b565b9150509250929050565b600080600060608486031215612556576125556134bf565b5b60006125648682870161240b565b93505060206125758682870161240b565b9250506040612586868287016124bb565b9150509250925092565b600080600080608085870312156125aa576125a96134bf565b5b60006125b88782880161240b565b94505060206125c98782880161240b565b93505060406125da878288016124bb565b925050606085013567ffffffffffffffff8111156125fb576125fa6134ba565b5b6126078782880161245f565b91505092959194509250565b6000806040838503121561262a576126296134bf565b5b60006126388582860161240b565b925050602061264985828601612420565b9150509250929050565b6000806040838503121561266a576126696134bf565b5b60006126788582860161240b565b9250506020612689858286016124bb565b9150509250929050565b6000602082840312156126a9576126a86134bf565b5b60006126b784828501612420565b91505092915050565b6000602082840312156126d6576126d56134bf565b5b60006126e484828501612435565b91505092915050565b600060208284031215612703576127026134bf565b5b60006127118482850161244a565b91505092915050565b6000602082840312156127305761272f6134bf565b5b600082013567ffffffffffffffff81111561274e5761274d6134ba565b5b61275a8482850161248d565b91505092915050565b600060208284031215612779576127786134bf565b5b6000612787848285016124bb565b91505092915050565b61279981613208565b82525050565b6127a8816131f6565b82525050565b6127b78161321a565b82525050565b60006127c88261309e565b6127d281856130b4565b93506127e281856020860161328b565b6127eb816134c4565b840191505092915050565b6000612801826130a9565b61280b81856130c5565b935061281b81856020860161328b565b612824816134c4565b840191505092915050565b600061283a826130a9565b61284481856130d6565b935061285481856020860161328b565b80840191505092915050565b6000815461286d816132e8565b61287781866130d6565b9450600182166000811461289257600181146128a3576128d6565b60ff198316865281860193506128d6565b6128ac85613089565b60005b838110156128ce578154818901526001820191506020810190506128af565b838801955050505b50505092915050565b60006128ec6032836130c5565b91506128f7826134d5565b604082019050919050565b600061290f6014836130c5565b915061291a82613524565b602082019050919050565b60006129326026836130c5565b915061293d8261354d565b604082019050919050565b6000612955601c836130c5565b91506129608261359c565b602082019050919050565b60006129786012836130c5565b9150612983826135c5565b602082019050919050565b600061299b6012836130c5565b91506129a6826135ee565b602082019050919050565b60006129be6024836130c5565b91506129c982613617565b604082019050919050565b60006129e16019836130c5565b91506129ec82613666565b602082019050919050565b6000612a04602c836130c5565b9150612a0f8261368f565b604082019050919050565b6000612a276038836130c5565b9150612a32826136de565b604082019050919050565b6000612a4a602a836130c5565b9150612a558261372d565b604082019050919050565b6000612a6d6029836130c5565b9150612a788261377c565b604082019050919050565b6000612a90602e836130c5565b9150612a9b826137cb565b604082019050919050565b6000612ab36020836130c5565b9150612abe8261381a565b602082019050919050565b6000612ad66031836130c5565b9150612ae182613843565b604082019050919050565b6000612af9602c836130c5565b9150612b0482613892565b604082019050919050565b6000612b1c6020836130c5565b9150612b27826138e1565b602082019050919050565b6000612b3f6029836130c5565b9150612b4a8261390a565b604082019050919050565b6000612b62602f836130c5565b9150612b6d82613959565b604082019050919050565b6000612b856021836130c5565b9150612b90826139a8565b604082019050919050565b6000612ba86031836130c5565b9150612bb3826139f7565b604082019050919050565b6000612bcb600b836130c5565b9150612bd682613a46565b602082019050919050565b612bea81613272565b82525050565b6000612bfc828561282f565b9150612c08828461282f565b91508190509392505050565b6000612c208285612860565b9150612c2c828461282f565b91508190509392505050565b6000602082019050612c4d600083018461279f565b92915050565b6000602082019050612c686000830184612790565b92915050565b6000608082019050612c83600083018761279f565b612c90602083018661279f565b612c9d6040830185612be1565b8181036060830152612caf81846127bd565b905095945050505050565b6000602082019050612ccf60008301846127ae565b92915050565b60006020820190508181036000830152612cef81846127f6565b905092915050565b60006040820190508181036000830152612d1181856127f6565b9050612d206020830184612be1565b9392505050565b60006020820190508181036000830152612d40816128df565b9050919050565b60006020820190508181036000830152612d6081612902565b9050919050565b60006020820190508181036000830152612d8081612925565b9050919050565b60006020820190508181036000830152612da081612948565b9050919050565b60006020820190508181036000830152612dc08161296b565b9050919050565b60006020820190508181036000830152612de08161298e565b9050919050565b60006020820190508181036000830152612e00816129b1565b9050919050565b60006020820190508181036000830152612e20816129d4565b9050919050565b60006020820190508181036000830152612e40816129f7565b9050919050565b60006020820190508181036000830152612e6081612a1a565b9050919050565b60006020820190508181036000830152612e8081612a3d565b9050919050565b60006020820190508181036000830152612ea081612a60565b9050919050565b60006020820190508181036000830152612ec081612a83565b9050919050565b60006020820190508181036000830152612ee081612aa6565b9050919050565b60006020820190508181036000830152612f0081612ac9565b9050919050565b60006020820190508181036000830152612f2081612aec565b9050919050565b60006020820190508181036000830152612f4081612b0f565b9050919050565b60006020820190508181036000830152612f6081612b32565b9050919050565b60006020820190508181036000830152612f8081612b55565b9050919050565b60006020820190508181036000830152612fa081612b78565b9050919050565b60006020820190508181036000830152612fc081612b9b565b9050919050565b60006020820190508181036000830152612fe081612bbe565b9050919050565b6000602082019050612ffc6000830184612be1565b92915050565b600061300c61301d565b9050613018828261331a565b919050565b6000604051905090565b600067ffffffffffffffff82111561304257613041613481565b5b61304b826134c4565b9050602081019050919050565b600067ffffffffffffffff82111561307357613072613481565b5b61307c826134c4565b9050602081019050919050565b60008190508160005260206000209050919050565b600081519050919050565b600081519050919050565b600082825260208201905092915050565b600082825260208201905092915050565b600081905092915050565b60006130ec82613272565b91506130f783613272565b9250827fffffffffffffffffffffffffffffffffffffffffffffffffffffffffffffffff0382111561312c5761312b6133c5565b5b828201905092915050565b600061314282613272565b915061314d83613272565b92508261315d5761315c6133f4565b5b828204905092915050565b600061317382613272565b915061317e83613272565b9250817fffffffffffffffffffffffffffffffffffffffffffffffffffffffffffffffff04831182151516156131b7576131b66133c5565b5b828202905092915050565b60006131cd82613272565b91506131d883613272565b9250828210156131eb576131ea6133c5565b5b828203905092915050565b600061320182613252565b9050919050565b600061321382613252565b9050919050565b60008115159050919050565b60007fffffffff0000000000000000000000000000000000000000000000000000000082169050919050565b600073ffffffffffffffffffffffffffffffffffffffff82169050919050565b6000819050919050565b82818337600083830152505050565b60005b838110156132a957808201518184015260208101905061328e565b838111156132b8576000848401525b50505050565b60006132c982613272565b915060008214156132dd576132dc6133c5565b5b600182039050919050565b6000600282049050600182168061330057607f821691505b6020821081141561331457613313613423565b5b50919050565b613323826134c4565b810181811067ffffffffffffffff8211171561334257613341613481565b5b80604052505050565b600061335682613272565b91507fffffffffffffffffffffffffffffffffffffffffffffffffffffffffffffffff821415613389576133886133c5565b5b600182019050919050565b600061339f82613272565b91506133aa83613272565b9250826133ba576133b96133f4565b5b828206905092915050565b7f4e487b7100000000000000000000000000000000000000000000000000000000600052601160045260246000fd5b7f4e487b7100000000000000000000000000000000000000000000000000000000600052601260045260246000fd5b7f4e487b7100000000000000000000000000000000000000000000000000000000600052602260045260246000fd5b7f4e487b7100000000000000000000000000000000000000000000000000000000600052603260045260246000fd5b7f4e487b7100000000000000000000000000000000000000000000000000000000600052604160045260246000fd5b600080fd5b600080fd5b600080fd5b600080fd5b6000601f19601f8301169050919050565b7f4552433732313a207472616e7366657220746f206e6f6e20455243373231526560008201527f63656976657220696d706c656d656e7465720000000000000000000000000000602082015250565b7f4e6f7420656e6f756768206974656d206c656674000000000000000000000000600082015250565b7f4f776e61626c653a206e6577206f776e657220697320746865207a65726f206160008201527f6464726573730000000000000000000000000000000000000000000000000000602082015250565b7f4552433732313a20746f6b656e20616c7265616479206d696e74656400000000600082015250565b7f4e6f742074686520676f6f642070726963650000000000000000000000000000600082015250565b7f57726f6e67206261746368206e756d6265720000000000000000000000000000600082015250565b7f4552433732313a207472616e7366657220746f20746865207a65726f2061646460008201527f7265737300000000000000000000000000000000000000000000000000000000602082015250565b7f4552433732313a20617070726f766520746f2063616c6c657200000000000000600082015250565b7f4552433732313a206f70657261746f7220717565727920666f72206e6f6e657860008201527f697374656e7420746f6b656e0000000000000000000000000000000000000000602082015250565b7f4552433732313a20617070726f76652063616c6c6572206973206e6f74206f7760008201527f6e6572206e6f7220617070726f76656420666f7220616c6c0000000000000000602082015250565b7f4552433732313a2062616c616e636520717565727920666f7220746865207a6560008201527f726f206164647265737300000000000000000000000000000000000000000000602082015250565b7f4552433732313a206f776e657220717565727920666f72206e6f6e657869737460008201527f656e7420746f6b656e0000000000000000000000000000000000000000000000602082015250565b7f45524337323155524953746f726167653a2055524920736574206f66206e6f6e60008201527f6578697374656e7420746f6b656e000000000000000000000000000000000000602082015250565b7f4552433732313a206d696e7420746f20746865207a65726f2061646472657373600082015250565b7f45524337323155524953746f726167653a2055524920717565727920666f722060008201527f6e6f6e6578697374656e7420746f6b656e000000000000000000000000000000602082015250565b7f4552433732313a20617070726f76656420717565727920666f72206e6f6e657860008201527f697374656e7420746f6b656e0000000000000000000000000000000000000000602082015250565b7f4f776e61626c653a2063616c6c6572206973206e6f7420746865206f776e6572600082015250565b7f4552433732313a207472616e73666572206f6620746f6b656e2074686174206960008201527f73206e6f74206f776e0000000000000000000000000000000000000000000000602082015250565b7f4552433732314d657461646174613a2055524920717565727920666f72206e6f60008201527f6e6578697374656e7420746f6b656e0000000000000000000000000000000000602082015250565b7f4552433732313a20617070726f76616c20746f2063757272656e74206f776e6560008201527f7200000000000000000000000000000000000000000000000000000000000000602082015250565b7f4552433732313a207472616e736665722063616c6c6572206973206e6f74206f60008201527f776e6572206e6f7220617070726f766564000000000000000000000000000000602082015250565b7f6e6f742073746172746564000000000000000000000000000000000000000000600082015250565b613a78816131f6565b8114613a8357600080fd5b50565b613a8f8161321a565b8114613a9a57600080fd5b50565b613aa681613226565b8114613ab157600080fd5b50565b613abd81613272565b8114613ac857600080fd5b5056fea2646970667358221220d29fcab95bfd6b3251bad1b6e9756bf6d1eb7498e288b8e707d03c3a594f943864736f6c63430008060033",
  "immutableReferences": {},
  "source": "// contracts/CryptoLiensNFT.sol\n// SPDX-License-Identifier: MIT\npragma solidity ^0.8.6;\n\nimport \"@openzeppelin/contracts/token/ERC721/extensions/ERC721URIStorage.sol\";\nimport \"@openzeppelin/contracts/utils/Counters.sol\";\nimport \"@openzeppelin/contracts/access/Ownable.sol\";\n\n\ncontract CryptoLienzNFT is ERC721URIStorage, Ownable {\n    using Counters for Counters.Counter;\n    Counters.Counter private _tokenIds;\n\n    address payable public minter;\n    uint256 public maxBatch = 5;\n    uint256 public totalCount = 200;\n    uint256 public price = 60000000000000000; // 0.04 eth\n\n    bool public started = false;\n\n    event MintNFT(address indexed _from, string url, uint256 times);\n\n    string private _uri = \"\";\n\n    modifier restricted() {\n      require(msg.sender == minter);\n      _;\n    }\n\n    constructor() ERC721(\"CryptoLienzNFT\", \"CLNFT\") {\n      minter = payable(msg.sender);\n    }\n\n    function mintNFT(uint256 _times) public payable {\n        require(started, \"not started\");\n        require(_times > 0 && _times <= maxBatch, \"Wrong batch number\");\n        require(_tokenIds.current() + _times <= totalCount, \"Not enough item left\");\n        require(msg.value == _times * price, \"Not the good price\");\n\n        for(uint256 i = 0; i < _times; i++){\n            _tokenIds.increment();\n\n            uint256 newItemId = _tokenIds.current();\n            _mint(msg.sender, newItemId);\n            string memory url = string(abi.encodePacked(_uri, uint2str(newItemId)));\n\n            emit MintNFT(msg.sender, url, _times);\n\n            _setTokenURI(newItemId, url);\n\n            payable(msg.sender).transfer(msg.value);\n        }\n    }\n\n    function totalSupply() public view virtual returns (uint256) {\n        return _tokenIds.current();\n    }\n        \n    function setStart(bool _start) public restricted {\n        started = _start;\n    }\n\n    function baseTokenURI() public view returns (string memory) {\n        return _uri;\n    }\n\n    function setBaseTokenURI(string memory _baseURI) public restricted {\n        _uri = _baseURI;\n    }\n\n    function uint2str(uint256 _i) internal pure returns (string memory str) {\n        if (_i == 0) {\n          return \"0\";\n        }\n        uint256 j = _i;\n        uint256 length;\n        while (j != 0) {\n          length++;\n          j /= 10;\n        }\n        bytes memory bstr = new bytes(length);\n        uint256 k = length;\n        j = _i;\n        while (j != 0) {\n          bstr[--k] = bytes1(uint8(48 + j % 10));\n          j /= 10;\n        }\n        str = string(bstr);\n        return str;\n    }\n}\n",
  "sourcePath": "/home/marc-olivier/Projects/cryptolienzContract/contracts/CryptoLienzNFT.sol",
  "compiler": {
    "name": "solc",
    "version": "0.8.6+commit.11564f7e.Emscripten.clang"
  },
  "schemaVersion": "3.4.1",
  "updatedAt": "2021-12-04T14:50:34.987Z",
  "networkType": "ethereum",
  "devdoc": {
    "kind": "dev",
    "methods": {
      "approve(address,uint256)": {
        "details": "See {IERC721-approve}."
      },
      "balanceOf(address)": {
        "details": "See {IERC721-balanceOf}."
      },
      "getApproved(uint256)": {
        "details": "See {IERC721-getApproved}."
      },
      "isApprovedForAll(address,address)": {
        "details": "See {IERC721-isApprovedForAll}."
      },
      "name()": {
        "details": "See {IERC721Metadata-name}."
      },
      "owner()": {
        "details": "Returns the address of the current owner."
      },
      "ownerOf(uint256)": {
        "details": "See {IERC721-ownerOf}."
      },
      "renounceOwnership()": {
        "details": "Leaves the contract without owner. It will not be possible to call `onlyOwner` functions anymore. Can only be called by the current owner. NOTE: Renouncing ownership will leave the contract without an owner, thereby removing any functionality that is only available to the owner."
      },
      "safeTransferFrom(address,address,uint256)": {
        "details": "See {IERC721-safeTransferFrom}."
      },
      "safeTransferFrom(address,address,uint256,bytes)": {
        "details": "See {IERC721-safeTransferFrom}."
      },
      "setApprovalForAll(address,bool)": {
        "details": "See {IERC721-setApprovalForAll}."
      },
      "supportsInterface(bytes4)": {
        "details": "See {IERC165-supportsInterface}."
      },
      "symbol()": {
        "details": "See {IERC721Metadata-symbol}."
      },
      "tokenURI(uint256)": {
        "details": "See {IERC721Metadata-tokenURI}."
      },
      "transferFrom(address,address,uint256)": {
        "details": "See {IERC721-transferFrom}."
      },
      "transferOwnership(address)": {
        "details": "Transfers ownership of the contract to a new account (`newOwner`). Can only be called by the current owner."
      }
    },
    "version": 1
  },
  "userdoc": {
    "kind": "user",
    "methods": {},
    "version": 1
  }
}