{
  "contractName": "CryptoLienzNFT",
  "abi": [
    {
      "inputs": [],
      "stateMutability": "nonpayable",
      "type": "constructor"
    },
    {
      "anonymous": false,
      "inputs": [
        {
          "indexed": true,
          "internalType": "address",
          "name": "owner",
          "type": "address"
        },
        {
          "indexed": true,
          "internalType": "address",
          "name": "approved",
          "type": "address"
        },
        {
          "indexed": true,
          "internalType": "uint256",
          "name": "tokenId",
          "type": "uint256"
        }
      ],
      "name": "Approval",
      "type": "event"
    },
    {
      "anonymous": false,
      "inputs": [
        {
          "indexed": true,
          "internalType": "address",
          "name": "owner",
          "type": "address"
        },
        {
          "indexed": true,
          "internalType": "address",
          "name": "operator",
          "type": "address"
        },
        {
          "indexed": false,
          "internalType": "bool",
          "name": "approved",
          "type": "bool"
        }
      ],
      "name": "ApprovalForAll",
      "type": "event"
    },
    {
      "anonymous": false,
      "inputs": [
        {
          "indexed": true,
          "internalType": "address",
          "name": "_from",
          "type": "address"
        },
        {
          "indexed": false,
          "internalType": "string",
          "name": "url",
          "type": "string"
        }
      ],
      "name": "MintNFT",
      "type": "event"
    },
    {
      "anonymous": false,
      "inputs": [
        {
          "indexed": true,
          "internalType": "address",
          "name": "previousOwner",
          "type": "address"
        },
        {
          "indexed": true,
          "internalType": "address",
          "name": "newOwner",
          "type": "address"
        }
      ],
      "name": "OwnershipTransferred",
      "type": "event"
    },
    {
      "anonymous": false,
      "inputs": [
        {
          "indexed": true,
          "internalType": "address",
          "name": "from",
          "type": "address"
        },
        {
          "indexed": true,
          "internalType": "address",
          "name": "to",
          "type": "address"
        },
        {
          "indexed": true,
          "internalType": "uint256",
          "name": "tokenId",
          "type": "uint256"
        }
      ],
      "name": "Transfer",
      "type": "event"
    },
    {
      "inputs": [
        {
          "internalType": "address",
          "name": "to",
          "type": "address"
        },
        {
          "internalType": "uint256",
          "name": "tokenId",
          "type": "uint256"
        }
      ],
      "name": "approve",
      "outputs": [],
      "stateMutability": "nonpayable",
      "type": "function"
    },
    {
      "inputs": [
        {
          "internalType": "address",
          "name": "owner",
          "type": "address"
        }
      ],
      "name": "balanceOf",
      "outputs": [
        {
          "internalType": "uint256",
          "name": "",
          "type": "uint256"
        }
      ],
      "stateMutability": "view",
      "type": "function",
      "constant": true
    },
    {
      "inputs": [
        {
          "internalType": "uint256",
          "name": "tokenId",
          "type": "uint256"
        }
      ],
      "name": "getApproved",
      "outputs": [
        {
          "internalType": "address",
          "name": "",
          "type": "address"
        }
      ],
      "stateMutability": "view",
      "type": "function",
      "constant": true
    },
    {
      "inputs": [
        {
          "internalType": "address",
          "name": "owner",
          "type": "address"
        },
        {
          "internalType": "address",
          "name": "operator",
          "type": "address"
        }
      ],
      "name": "isApprovedForAll",
      "outputs": [
        {
          "internalType": "bool",
          "name": "",
          "type": "bool"
        }
      ],
      "stateMutability": "view",
      "type": "function",
      "constant": true
    },
    {
      "inputs": [],
      "name": "name",
      "outputs": [
        {
          "internalType": "string",
          "name": "",
          "type": "string"
        }
      ],
      "stateMutability": "view",
      "type": "function",
      "constant": true
    },
    {
      "inputs": [],
      "name": "owner",
      "outputs": [
        {
          "internalType": "address",
          "name": "",
          "type": "address"
        }
      ],
      "stateMutability": "view",
      "type": "function",
      "constant": true
    },
    {
      "inputs": [
        {
          "internalType": "uint256",
          "name": "tokenId",
          "type": "uint256"
        }
      ],
      "name": "ownerOf",
      "outputs": [
        {
          "internalType": "address",
          "name": "",
          "type": "address"
        }
      ],
      "stateMutability": "view",
      "type": "function",
      "constant": true
    },
    {
      "inputs": [],
      "name": "renounceOwnership",
      "outputs": [],
      "stateMutability": "nonpayable",
      "type": "function"
    },
    {
      "inputs": [
        {
          "internalType": "address",
          "name": "from",
          "type": "address"
        },
        {
          "internalType": "address",
          "name": "to",
          "type": "address"
        },
        {
          "internalType": "uint256",
          "name": "tokenId",
          "type": "uint256"
        }
      ],
      "name": "safeTransferFrom",
      "outputs": [],
      "stateMutability": "nonpayable",
      "type": "function"
    },
    {
      "inputs": [
        {
          "internalType": "address",
          "name": "from",
          "type": "address"
        },
        {
          "internalType": "address",
          "name": "to",
          "type": "address"
        },
        {
          "internalType": "uint256",
          "name": "tokenId",
          "type": "uint256"
        },
        {
          "internalType": "bytes",
          "name": "_data",
          "type": "bytes"
        }
      ],
      "name": "safeTransferFrom",
      "outputs": [],
      "stateMutability": "nonpayable",
      "type": "function"
    },
    {
      "inputs": [
        {
          "internalType": "address",
          "name": "operator",
          "type": "address"
        },
        {
          "internalType": "bool",
          "name": "approved",
          "type": "bool"
        }
      ],
      "name": "setApprovalForAll",
      "outputs": [],
      "stateMutability": "nonpayable",
      "type": "function"
    },
    {
      "inputs": [
        {
          "internalType": "bytes4",
          "name": "interfaceId",
          "type": "bytes4"
        }
      ],
      "name": "supportsInterface",
      "outputs": [
        {
          "internalType": "bool",
          "name": "",
          "type": "bool"
        }
      ],
      "stateMutability": "view",
      "type": "function",
      "constant": true
    },
    {
      "inputs": [],
      "name": "symbol",
      "outputs": [
        {
          "internalType": "string",
          "name": "",
          "type": "string"
        }
      ],
      "stateMutability": "view",
      "type": "function",
      "constant": true
    },
    {
      "inputs": [
        {
          "internalType": "uint256",
          "name": "tokenId",
          "type": "uint256"
        }
      ],
      "name": "tokenURI",
      "outputs": [
        {
          "internalType": "string",
          "name": "",
          "type": "string"
        }
      ],
      "stateMutability": "view",
      "type": "function",
      "constant": true
    },
    {
      "inputs": [
        {
          "internalType": "address",
          "name": "from",
          "type": "address"
        },
        {
          "internalType": "address",
          "name": "to",
          "type": "address"
        },
        {
          "internalType": "uint256",
          "name": "tokenId",
          "type": "uint256"
        }
      ],
      "name": "transferFrom",
      "outputs": [],
      "stateMutability": "nonpayable",
      "type": "function"
    },
    {
      "inputs": [
        {
          "internalType": "address",
          "name": "newOwner",
          "type": "address"
        }
      ],
      "name": "transferOwnership",
      "outputs": [],
      "stateMutability": "nonpayable",
      "type": "function"
    },
    {
      "inputs": [],
      "name": "mintNFT",
      "outputs": [
        {
          "internalType": "uint256",
          "name": "",
          "type": "uint256"
        }
      ],
      "stateMutability": "nonpayable",
      "type": "function"
    },
    {
      "inputs": [],
      "name": "baseTokenURI",
      "outputs": [
        {
          "internalType": "string",
          "name": "",
          "type": "string"
        }
      ],
      "stateMutability": "view",
      "type": "function",
      "constant": true
    }
  ],
  "bytecode": "0x6080604052604051806080016040528060518152602001620034e3605191396009908051906020019062000035929190620001d8565b503480156200004357600080fd5b506040518060400160405280600e81526020017f43727970746f4c69656e7a4e46540000000000000000000000000000000000008152506040518060400160405280600581526020017f434c4e46540000000000000000000000000000000000000000000000000000008152508160009080519060200190620000c8929190620001d8565b508060019080519060200190620000e1929190620001d8565b50505062000104620000f86200010a60201b60201c565b6200011260201b60201c565b620002ed565b600033905090565b6000600760009054906101000a900473ffffffffffffffffffffffffffffffffffffffff16905081600760006101000a81548173ffffffffffffffffffffffffffffffffffffffff021916908373ffffffffffffffffffffffffffffffffffffffff1602179055508173ffffffffffffffffffffffffffffffffffffffff168173ffffffffffffffffffffffffffffffffffffffff167f8be0079c531659141344cd1fd0a4f28419497f9722a3daafe3b4186f6b6457e060405160405180910390a35050565b828054620001e69062000288565b90600052602060002090601f0160209004810192826200020a576000855562000256565b82601f106200022557805160ff191683800117855562000256565b8280016001018555821562000256579182015b828111156200025557825182559160200191906001019062000238565b5b50905062000265919062000269565b5090565b5b80821115620002845760008160009055506001016200026a565b5090565b60006002820490506001821680620002a157607f821691505b60208210811415620002b857620002b7620002be565b5b50919050565b7f4e487b7100000000000000000000000000000000000000000000000000000000600052602260045260246000fd5b6131e680620002fd6000396000f3fe608060405234801561001057600080fd5b50600436106101165760003560e01c8063715018a6116100a2578063b88d4fde11610071578063b88d4fde146102cd578063c87b56dd146102e9578063d547cfb714610319578063e985e9c514610337578063f2fde38b1461036757610116565b8063715018a61461026b5780638da5cb5b1461027557806395d89b4114610293578063a22cb465146102b157610116565b806314f710fe116100e957806314f710fe146101b557806323b872dd146101d357806342842e0e146101ef5780636352211e1461020b57806370a082311461023b57610116565b806301ffc9a71461011b57806306fdde031461014b578063081812fc14610169578063095ea7b314610199575b600080fd5b61013560048036038101906101309190612095565b610383565b6040516101429190612590565b60405180910390f35b610153610465565b60405161016091906125ab565b60405180910390f35b610183600480360381019061017e91906120ef565b6104f7565b6040516101909190612529565b60405180910390f35b6101b360048036038101906101ae9190612055565b61057c565b005b6101bd610694565b6040516101ca919061280d565b60405180910390f35b6101ed60048036038101906101e89190611f3f565b610747565b005b61020960048036038101906102049190611f3f565b6107a7565b005b610225600480360381019061022091906120ef565b6107c7565b6040516102329190612529565b60405180910390f35b61025560048036038101906102509190611ed2565b610879565b604051610262919061280d565b60405180910390f35b610273610931565b005b61027d6109b9565b60405161028a9190612529565b60405180910390f35b61029b6109e3565b6040516102a891906125ab565b60405180910390f35b6102cb60048036038101906102c69190612015565b610a75565b005b6102e760048036038101906102e29190611f92565b610bf6565b005b61030360048036038101906102fe91906120ef565b610c58565b60405161031091906125ab565b60405180910390f35b610321610daa565b60405161032e91906125ab565b60405180910390f35b610351600480360381019061034c9190611eff565b610e3c565b60405161035e9190612590565b60405180910390f35b610381600480360381019061037c9190611ed2565b610ed0565b005b60007f80ac58cd000000000000000000000000000000000000000000000000000000007bffffffffffffffffffffffffffffffffffffffffffffffffffffffff1916827bffffffffffffffffffffffffffffffffffffffffffffffffffffffff1916148061044e57507f5b5e139f000000000000000000000000000000000000000000000000000000007bffffffffffffffffffffffffffffffffffffffffffffffffffffffff1916827bffffffffffffffffffffffffffffffffffffffffffffffffffffffff1916145b8061045e575061045d82610fc8565b5b9050919050565b60606000805461047490612a71565b80601f01602080910402602001604051908101604052809291908181526020018280546104a090612a71565b80156104ed5780601f106104c2576101008083540402835291602001916104ed565b820191906000526020600020905b8154815290600101906020018083116104d057829003601f168201915b5050505050905090565b600061050282611032565b610541576040517f08c379a00000000000000000000000000000000000000000000000000000000081526004016105389061274d565b60405180910390fd5b6004600083815260200190815260200160002060009054906101000a900473ffffffffffffffffffffffffffffffffffffffff169050919050565b6000610587826107c7565b90508073ffffffffffffffffffffffffffffffffffffffff168373ffffffffffffffffffffffffffffffffffffffff1614156105f8576040517f08c379a00000000000000000000000000000000000000000000000000000000081526004016105ef906127cd565b60405180910390fd5b8073ffffffffffffffffffffffffffffffffffffffff1661061761109e565b73ffffffffffffffffffffffffffffffffffffffff16148061064657506106458161064061109e565b610e3c565b5b610685576040517f08c379a000000000000000000000000000000000000000000000000000000000815260040161067c9061268d565b60405180910390fd5b61068f83836110a6565b505050565b60006106a0600861115f565b60006106ac6008611175565b90506106b83382611183565b600060096106c583611351565b6040516020016106d6929190612505565b60405160208183030381529060405290503373ffffffffffffffffffffffffffffffffffffffff167fa06b4ca1f56a77dde802d9670bc34c0fce1b29b95fcad5b6f4a0214107e1dc488260405161072d91906125ab565b60405180910390a261073f82826114b8565b819250505090565b61075861075261109e565b8261152c565b610797576040517f08c379a000000000000000000000000000000000000000000000000000000000815260040161078e906127ed565b60405180910390fd5b6107a283838361160a565b505050565b6107c283838360405180602001604052806000815250610bf6565b505050565b6000806002600084815260200190815260200160002060009054906101000a900473ffffffffffffffffffffffffffffffffffffffff169050600073ffffffffffffffffffffffffffffffffffffffff168173ffffffffffffffffffffffffffffffffffffffff161415610870576040517f08c379a0000000000000000000000000000000000000000000000000000000008152600401610867906126cd565b60405180910390fd5b80915050919050565b60008073ffffffffffffffffffffffffffffffffffffffff168273ffffffffffffffffffffffffffffffffffffffff1614156108ea576040517f08c379a00000000000000000000000000000000000000000000000000000000081526004016108e1906126ad565b60405180910390fd5b600360008373ffffffffffffffffffffffffffffffffffffffff1673ffffffffffffffffffffffffffffffffffffffff168152602001908152602001600020549050919050565b61093961109e565b73ffffffffffffffffffffffffffffffffffffffff166109576109b9565b73ffffffffffffffffffffffffffffffffffffffff16146109ad576040517f08c379a00000000000000000000000000000000000000000000000000000000081526004016109a49061276d565b60405180910390fd5b6109b76000611866565b565b6000600760009054906101000a900473ffffffffffffffffffffffffffffffffffffffff16905090565b6060600180546109f290612a71565b80601f0160208091040260200160405190810160405280929190818152602001828054610a1e90612a71565b8015610a6b5780601f10610a4057610100808354040283529160200191610a6b565b820191906000526020600020905b815481529060010190602001808311610a4e57829003601f168201915b5050505050905090565b610a7d61109e565b73ffffffffffffffffffffffffffffffffffffffff168273ffffffffffffffffffffffffffffffffffffffff161415610aeb576040517f08c379a0000000000000000000000000000000000000000000000000000000008152600401610ae29061264d565b60405180910390fd5b8060056000610af861109e565b73ffffffffffffffffffffffffffffffffffffffff1673ffffffffffffffffffffffffffffffffffffffff16815260200190815260200160002060008473ffffffffffffffffffffffffffffffffffffffff1673ffffffffffffffffffffffffffffffffffffffff16815260200190815260200160002060006101000a81548160ff0219169083151502179055508173ffffffffffffffffffffffffffffffffffffffff16610ba561109e565b73ffffffffffffffffffffffffffffffffffffffff167f17307eab39ab6107e8899845ad3d59bd9653f200f220920489ca2b5937696c3183604051610bea9190612590565b60405180910390a35050565b610c07610c0161109e565b8361152c565b610c46576040517f08c379a0000000000000000000000000000000000000000000000000000000008152600401610c3d906127ed565b60405180910390fd5b610c528484848461192c565b50505050565b6060610c6382611032565b610ca2576040517f08c379a0000000000000000000000000000000000000000000000000000000008152600401610c999061272d565b60405180910390fd5b6000600660008481526020019081526020016000208054610cc290612a71565b80601f0160208091040260200160405190810160405280929190818152602001828054610cee90612a71565b8015610d3b5780601f10610d1057610100808354040283529160200191610d3b565b820191906000526020600020905b815481529060010190602001808311610d1e57829003601f168201915b505050505090506000610d4c611988565b9050600081511415610d62578192505050610da5565b600082511115610d97578082604051602001610d7f9291906124e1565b60405160208183030381529060405292505050610da5565b610da08461199f565b925050505b919050565b606060098054610db990612a71565b80601f0160208091040260200160405190810160405280929190818152602001828054610de590612a71565b8015610e325780601f10610e0757610100808354040283529160200191610e32565b820191906000526020600020905b815481529060010190602001808311610e1557829003601f168201915b5050505050905090565b6000600560008473ffffffffffffffffffffffffffffffffffffffff1673ffffffffffffffffffffffffffffffffffffffff16815260200190815260200160002060008373ffffffffffffffffffffffffffffffffffffffff1673ffffffffffffffffffffffffffffffffffffffff16815260200190815260200160002060009054906101000a900460ff16905092915050565b610ed861109e565b73ffffffffffffffffffffffffffffffffffffffff16610ef66109b9565b73ffffffffffffffffffffffffffffffffffffffff1614610f4c576040517f08c379a0000000000000000000000000000000000000000000000000000000008152600401610f439061276d565b60405180910390fd5b600073ffffffffffffffffffffffffffffffffffffffff168173ffffffffffffffffffffffffffffffffffffffff161415610fbc576040517f08c379a0000000000000000000000000000000000000000000000000000000008152600401610fb3906125ed565b60405180910390fd5b610fc581611866565b50565b60007f01ffc9a7000000000000000000000000000000000000000000000000000000007bffffffffffffffffffffffffffffffffffffffffffffffffffffffff1916827bffffffffffffffffffffffffffffffffffffffffffffffffffffffff1916149050919050565b60008073ffffffffffffffffffffffffffffffffffffffff166002600084815260200190815260200160002060009054906101000a900473ffffffffffffffffffffffffffffffffffffffff1673ffffffffffffffffffffffffffffffffffffffff1614159050919050565b600033905090565b816004600083815260200190815260200160002060006101000a81548173ffffffffffffffffffffffffffffffffffffffff021916908373ffffffffffffffffffffffffffffffffffffffff160217905550808273ffffffffffffffffffffffffffffffffffffffff16611119836107c7565b73ffffffffffffffffffffffffffffffffffffffff167f8c5be1e5ebec7d5bd14f71427d1e84f3dd0314c0f7b2291e5b200ac8c7c3b92560405160405180910390a45050565b6001816000016000828254019250508190555050565b600081600001549050919050565b600073ffffffffffffffffffffffffffffffffffffffff168273ffffffffffffffffffffffffffffffffffffffff1614156111f3576040517f08c379a00000000000000000000000000000000000000000000000000000000081526004016111ea9061270d565b60405180910390fd5b6111fc81611032565b1561123c576040517f08c379a00000000000000000000000000000000000000000000000000000000081526004016112339061260d565b60405180910390fd5b61124860008383611a46565b6001600360008473ffffffffffffffffffffffffffffffffffffffff1673ffffffffffffffffffffffffffffffffffffffff168152602001908152602001600020600082825461129891906128d6565b92505081905550816002600083815260200190815260200160002060006101000a81548173ffffffffffffffffffffffffffffffffffffffff021916908373ffffffffffffffffffffffffffffffffffffffff160217905550808273ffffffffffffffffffffffffffffffffffffffff16600073ffffffffffffffffffffffffffffffffffffffff167fddf252ad1be2c89b69c2b068fc378daa952ba7f163c4a11628f55a4df523b3ef60405160405180910390a45050565b60606000821415611399576040518060400160405280600181526020017f300000000000000000000000000000000000000000000000000000000000000081525090506114b3565b600082905060005b600082146113cb5780806113b490612ad4565b915050600a826113c4919061292c565b91506113a1565b60008167ffffffffffffffff8111156113e7576113e6612c0a565b5b6040519080825280601f01601f1916602001820160405280156114195781602001600182028036833780820191505090505b50905060008290508593505b600084146114ab57600a8461143a9190612b1d565b603061144691906128d6565b60f81b828261145490612a47565b9250828151811061146857611467612bdb565b5b60200101907effffffffffffffffffffffffffffffffffffffffffffffffffffffffffffff1916908160001a905350600a846114a4919061292c565b9350611425565b819450505050505b919050565b6114c182611032565b611500576040517f08c379a00000000000000000000000000000000000000000000000000000000081526004016114f7906126ed565b60405180910390fd5b80600660008481526020019081526020016000209080519060200190611527929190611d56565b505050565b600061153782611032565b611576576040517f08c379a000000000000000000000000000000000000000000000000000000000815260040161156d9061266d565b60405180910390fd5b6000611581836107c7565b90508073ffffffffffffffffffffffffffffffffffffffff168473ffffffffffffffffffffffffffffffffffffffff1614806115f057508373ffffffffffffffffffffffffffffffffffffffff166115d8846104f7565b73ffffffffffffffffffffffffffffffffffffffff16145b8061160157506116008185610e3c565b5b91505092915050565b8273ffffffffffffffffffffffffffffffffffffffff1661162a826107c7565b73ffffffffffffffffffffffffffffffffffffffff1614611680576040517f08c379a00000000000000000000000000000000000000000000000000000000081526004016116779061278d565b60405180910390fd5b600073ffffffffffffffffffffffffffffffffffffffff168273ffffffffffffffffffffffffffffffffffffffff1614156116f0576040517f08c379a00000000000000000000000000000000000000000000000000000000081526004016116e79061262d565b60405180910390fd5b6116fb838383611a46565b6117066000826110a6565b6001600360008573ffffffffffffffffffffffffffffffffffffffff1673ffffffffffffffffffffffffffffffffffffffff1681526020019081526020016000206000828254611756919061295d565b925050819055506001600360008473ffffffffffffffffffffffffffffffffffffffff1673ffffffffffffffffffffffffffffffffffffffff16815260200190815260200160002060008282546117ad91906128d6565b92505081905550816002600083815260200190815260200160002060006101000a81548173ffffffffffffffffffffffffffffffffffffffff021916908373ffffffffffffffffffffffffffffffffffffffff160217905550808273ffffffffffffffffffffffffffffffffffffffff168473ffffffffffffffffffffffffffffffffffffffff167fddf252ad1be2c89b69c2b068fc378daa952ba7f163c4a11628f55a4df523b3ef60405160405180910390a4505050565b6000600760009054906101000a900473ffffffffffffffffffffffffffffffffffffffff16905081600760006101000a81548173ffffffffffffffffffffffffffffffffffffffff021916908373ffffffffffffffffffffffffffffffffffffffff1602179055508173ffffffffffffffffffffffffffffffffffffffff168173ffffffffffffffffffffffffffffffffffffffff167f8be0079c531659141344cd1fd0a4f28419497f9722a3daafe3b4186f6b6457e060405160405180910390a35050565b61193784848461160a565b61194384848484611a4b565b611982576040517f08c379a0000000000000000000000000000000000000000000000000000000008152600401611979906125cd565b60405180910390fd5b50505050565b606060405180602001604052806000815250905090565b60606119aa82611032565b6119e9576040517f08c379a00000000000000000000000000000000000000000000000000000000081526004016119e0906127ad565b60405180910390fd5b60006119f3611988565b90506000815111611a135760405180602001604052806000815250611a3e565b80611a1d84611be2565b604051602001611a2e9291906124e1565b6040516020818303038152906040525b915050919050565b505050565b6000611a6c8473ffffffffffffffffffffffffffffffffffffffff16611d43565b15611bd5578373ffffffffffffffffffffffffffffffffffffffff1663150b7a02611a9561109e565b8786866040518563ffffffff1660e01b8152600401611ab79493929190612544565b602060405180830381600087803b158015611ad157600080fd5b505af1925050508015611b0257506040513d601f19601f82011682018060405250810190611aff91906120c2565b60015b611b85573d8060008114611b32576040519150601f19603f3d011682016040523d82523d6000602084013e611b37565b606091505b50600081511415611b7d576040517f08c379a0000000000000000000000000000000000000000000000000000000008152600401611b74906125cd565b60405180910390fd5b805181602001fd5b63150b7a0260e01b7bffffffffffffffffffffffffffffffffffffffffffffffffffffffff1916817bffffffffffffffffffffffffffffffffffffffffffffffffffffffff191614915050611bda565b600190505b949350505050565b60606000821415611c2a576040518060400160405280600181526020017f30000000000000000000000000000000000000000000000000000000000000008152509050611d3e565b600082905060005b60008214611c5c578080611c4590612ad4565b915050600a82611c55919061292c565b9150611c32565b60008167ffffffffffffffff811115611c7857611c77612c0a565b5b6040519080825280601f01601f191660200182016040528015611caa5781602001600182028036833780820191505090505b5090505b60008514611d3757600182611cc3919061295d565b9150600a85611cd29190612b1d565b6030611cde91906128d6565b60f81b818381518110611cf457611cf3612bdb565b5b60200101907effffffffffffffffffffffffffffffffffffffffffffffffffffffffffffff1916908160001a905350600a85611d30919061292c565b9450611cae565b8093505050505b919050565b600080823b905060008111915050919050565b828054611d6290612a71565b90600052602060002090601f016020900481019282611d845760008555611dcb565b82601f10611d9d57805160ff1916838001178555611dcb565b82800160010185558215611dcb579182015b82811115611dca578251825591602001919060010190611daf565b5b509050611dd89190611ddc565b5090565b5b80821115611df5576000816000905550600101611ddd565b5090565b6000611e0c611e078461284d565b612828565b905082815260208101848484011115611e2857611e27612c3e565b5b611e33848285612a05565b509392505050565b600081359050611e4a81613154565b92915050565b600081359050611e5f8161316b565b92915050565b600081359050611e7481613182565b92915050565b600081519050611e8981613182565b92915050565b600082601f830112611ea457611ea3612c39565b5b8135611eb4848260208601611df9565b91505092915050565b600081359050611ecc81613199565b92915050565b600060208284031215611ee857611ee7612c48565b5b6000611ef684828501611e3b565b91505092915050565b60008060408385031215611f1657611f15612c48565b5b6000611f2485828601611e3b565b9250506020611f3585828601611e3b565b9150509250929050565b600080600060608486031215611f5857611f57612c48565b5b6000611f6686828701611e3b565b9350506020611f7786828701611e3b565b9250506040611f8886828701611ebd565b9150509250925092565b60008060008060808587031215611fac57611fab612c48565b5b6000611fba87828801611e3b565b9450506020611fcb87828801611e3b565b9350506040611fdc87828801611ebd565b925050606085013567ffffffffffffffff811115611ffd57611ffc612c43565b5b61200987828801611e8f565b91505092959194509250565b6000806040838503121561202c5761202b612c48565b5b600061203a85828601611e3b565b925050602061204b85828601611e50565b9150509250929050565b6000806040838503121561206c5761206b612c48565b5b600061207a85828601611e3b565b925050602061208b85828601611ebd565b9150509250929050565b6000602082840312156120ab576120aa612c48565b5b60006120b984828501611e65565b91505092915050565b6000602082840312156120d8576120d7612c48565b5b60006120e684828501611e7a565b91505092915050565b60006020828403121561210557612104612c48565b5b600061211384828501611ebd565b91505092915050565b61212581612991565b82525050565b612134816129a3565b82525050565b600061214582612893565b61214f81856128a9565b935061215f818560208601612a14565b61216881612c4d565b840191505092915050565b600061217e8261289e565b61218881856128ba565b9350612198818560208601612a14565b6121a181612c4d565b840191505092915050565b60006121b78261289e565b6121c181856128cb565b93506121d1818560208601612a14565b80840191505092915050565b600081546121ea81612a71565b6121f481866128cb565b9450600182166000811461220f576001811461222057612253565b60ff19831686528186019350612253565b6122298561287e565b60005b8381101561224b5781548189015260018201915060208101905061222c565b838801955050505b50505092915050565b60006122696032836128ba565b915061227482612c5e565b604082019050919050565b600061228c6026836128ba565b915061229782612cad565b604082019050919050565b60006122af601c836128ba565b91506122ba82612cfc565b602082019050919050565b60006122d26024836128ba565b91506122dd82612d25565b604082019050919050565b60006122f56019836128ba565b915061230082612d74565b602082019050919050565b6000612318602c836128ba565b915061232382612d9d565b604082019050919050565b600061233b6038836128ba565b915061234682612dec565b604082019050919050565b600061235e602a836128ba565b915061236982612e3b565b604082019050919050565b60006123816029836128ba565b915061238c82612e8a565b604082019050919050565b60006123a4602e836128ba565b91506123af82612ed9565b604082019050919050565b60006123c76020836128ba565b91506123d282612f28565b602082019050919050565b60006123ea6031836128ba565b91506123f582612f51565b604082019050919050565b600061240d602c836128ba565b915061241882612fa0565b604082019050919050565b60006124306020836128ba565b915061243b82612fef565b602082019050919050565b60006124536029836128ba565b915061245e82613018565b604082019050919050565b6000612476602f836128ba565b915061248182613067565b604082019050919050565b60006124996021836128ba565b91506124a4826130b6565b604082019050919050565b60006124bc6031836128ba565b91506124c782613105565b604082019050919050565b6124db816129fb565b82525050565b60006124ed82856121ac565b91506124f982846121ac565b91508190509392505050565b600061251182856121dd565b915061251d82846121ac565b91508190509392505050565b600060208201905061253e600083018461211c565b92915050565b6000608082019050612559600083018761211c565b612566602083018661211c565b61257360408301856124d2565b8181036060830152612585818461213a565b905095945050505050565b60006020820190506125a5600083018461212b565b92915050565b600060208201905081810360008301526125c58184612173565b905092915050565b600060208201905081810360008301526125e68161225c565b9050919050565b600060208201905081810360008301526126068161227f565b9050919050565b60006020820190508181036000830152612626816122a2565b9050919050565b60006020820190508181036000830152612646816122c5565b9050919050565b60006020820190508181036000830152612666816122e8565b9050919050565b600060208201905081810360008301526126868161230b565b9050919050565b600060208201905081810360008301526126a68161232e565b9050919050565b600060208201905081810360008301526126c681612351565b9050919050565b600060208201905081810360008301526126e681612374565b9050919050565b6000602082019050818103600083015261270681612397565b9050919050565b60006020820190508181036000830152612726816123ba565b9050919050565b60006020820190508181036000830152612746816123dd565b9050919050565b6000602082019050818103600083015261276681612400565b9050919050565b6000602082019050818103600083015261278681612423565b9050919050565b600060208201905081810360008301526127a681612446565b9050919050565b600060208201905081810360008301526127c681612469565b9050919050565b600060208201905081810360008301526127e68161248c565b9050919050565b60006020820190508181036000830152612806816124af565b9050919050565b600060208201905061282260008301846124d2565b92915050565b6000612832612843565b905061283e8282612aa3565b919050565b6000604051905090565b600067ffffffffffffffff82111561286857612867612c0a565b5b61287182612c4d565b9050602081019050919050565b60008190508160005260206000209050919050565b600081519050919050565b600081519050919050565b600082825260208201905092915050565b600082825260208201905092915050565b600081905092915050565b60006128e1826129fb565b91506128ec836129fb565b9250827fffffffffffffffffffffffffffffffffffffffffffffffffffffffffffffffff0382111561292157612920612b4e565b5b828201905092915050565b6000612937826129fb565b9150612942836129fb565b92508261295257612951612b7d565b5b828204905092915050565b6000612968826129fb565b9150612973836129fb565b92508282101561298657612985612b4e565b5b828203905092915050565b600061299c826129db565b9050919050565b60008115159050919050565b60007fffffffff0000000000000000000000000000000000000000000000000000000082169050919050565b600073ffffffffffffffffffffffffffffffffffffffff82169050919050565b6000819050919050565b82818337600083830152505050565b60005b83811015612a32578082015181840152602081019050612a17565b83811115612a41576000848401525b50505050565b6000612a52826129fb565b91506000821415612a6657612a65612b4e565b5b600182039050919050565b60006002820490506001821680612a8957607f821691505b60208210811415612a9d57612a9c612bac565b5b50919050565b612aac82612c4d565b810181811067ffffffffffffffff82111715612acb57612aca612c0a565b5b80604052505050565b6000612adf826129fb565b91507fffffffffffffffffffffffffffffffffffffffffffffffffffffffffffffffff821415612b1257612b11612b4e565b5b600182019050919050565b6000612b28826129fb565b9150612b33836129fb565b925082612b4357612b42612b7d565b5b828206905092915050565b7f4e487b7100000000000000000000000000000000000000000000000000000000600052601160045260246000fd5b7f4e487b7100000000000000000000000000000000000000000000000000000000600052601260045260246000fd5b7f4e487b7100000000000000000000000000000000000000000000000000000000600052602260045260246000fd5b7f4e487b7100000000000000000000000000000000000000000000000000000000600052603260045260246000fd5b7f4e487b7100000000000000000000000000000000000000000000000000000000600052604160045260246000fd5b600080fd5b600080fd5b600080fd5b600080fd5b6000601f19601f8301169050919050565b7f4552433732313a207472616e7366657220746f206e6f6e20455243373231526560008201527f63656976657220696d706c656d656e7465720000000000000000000000000000602082015250565b7f4f776e61626c653a206e6577206f776e657220697320746865207a65726f206160008201527f6464726573730000000000000000000000000000000000000000000000000000602082015250565b7f4552433732313a20746f6b656e20616c7265616479206d696e74656400000000600082015250565b7f4552433732313a207472616e7366657220746f20746865207a65726f2061646460008201527f7265737300000000000000000000000000000000000000000000000000000000602082015250565b7f4552433732313a20617070726f766520746f2063616c6c657200000000000000600082015250565b7f4552433732313a206f70657261746f7220717565727920666f72206e6f6e657860008201527f697374656e7420746f6b656e0000000000000000000000000000000000000000602082015250565b7f4552433732313a20617070726f76652063616c6c6572206973206e6f74206f7760008201527f6e6572206e6f7220617070726f76656420666f7220616c6c0000000000000000602082015250565b7f4552433732313a2062616c616e636520717565727920666f7220746865207a6560008201527f726f206164647265737300000000000000000000000000000000000000000000602082015250565b7f4552433732313a206f776e657220717565727920666f72206e6f6e657869737460008201527f656e7420746f6b656e0000000000000000000000000000000000000000000000602082015250565b7f45524337323155524953746f726167653a2055524920736574206f66206e6f6e60008201527f6578697374656e7420746f6b656e000000000000000000000000000000000000602082015250565b7f4552433732313a206d696e7420746f20746865207a65726f2061646472657373600082015250565b7f45524337323155524953746f726167653a2055524920717565727920666f722060008201527f6e6f6e6578697374656e7420746f6b656e000000000000000000000000000000602082015250565b7f4552433732313a20617070726f76656420717565727920666f72206e6f6e657860008201527f697374656e7420746f6b656e0000000000000000000000000000000000000000602082015250565b7f4f776e61626c653a2063616c6c6572206973206e6f7420746865206f776e6572600082015250565b7f4552433732313a207472616e73666572206f6620746f6b656e2074686174206960008201527f73206e6f74206f776e0000000000000000000000000000000000000000000000602082015250565b7f4552433732314d657461646174613a2055524920717565727920666f72206e6f60008201527f6e6578697374656e7420746f6b656e0000000000000000000000000000000000602082015250565b7f4552433732313a20617070726f76616c20746f2063757272656e74206f776e6560008201527f7200000000000000000000000000000000000000000000000000000000000000602082015250565b7f4552433732313a207472616e736665722063616c6c6572206973206e6f74206f60008201527f776e6572206e6f7220617070726f766564000000000000000000000000000000602082015250565b61315d81612991565b811461316857600080fd5b50565b613174816129a3565b811461317f57600080fd5b50565b61318b816129af565b811461319657600080fd5b50565b6131a2816129fb565b81146131ad57600080fd5b5056fea2646970667358221220723e88552681cadbc51f5b77b332a2f113cc9484bda741091a46ee3b0344ee8364736f6c6343000806003368747470733a2f2f676174657761792e70696e6174612e636c6f75642f697066732f516d6374663869464e3277794234556e346574336178686f6277756e4c4443614d7631425041657162654e5476582f",
  "immutableReferences": {},
  "source": "// contracts/CryptoLiensNFT.sol\n// SPDX-License-Identifier: MIT\npragma solidity ^0.8.6;\n\nimport \"@openzeppelin/contracts/token/ERC721/extensions/ERC721URIStorage.sol\";\nimport \"@openzeppelin/contracts/utils/Counters.sol\";\nimport \"@openzeppelin/contracts/access/Ownable.sol\";\n\n\ncontract CryptoLienzNFT is ERC721URIStorage, Ownable {\n    using Counters for Counters.Counter;\n    Counters.Counter private _tokenIds;\n    string private uri = \"https://gateway.pinata.cloud/ipfs/Qmctf8iFN2wyB4Un4et3axhobwunLDCaMv1BPAeqbeNTvX/\";\n\n    constructor() ERC721(\"CryptoLienzNFT\", \"CLNFT\") {}\n    event MintNFT(address indexed _from, string url);\n\n    function mintNFT()\n        public\n        returns (uint256)\n    {\n        _tokenIds.increment();\n\n        uint256 newItemId = _tokenIds.current();\n        _mint(msg.sender, newItemId);\n        string memory url = string(abi.encodePacked(uri, uint2str(newItemId)));\n\n        emit MintNFT(msg.sender, url);\n\n        _setTokenURI(newItemId, url);\n\n        return newItemId;\n    }\n        \n\n    function baseTokenURI() public view returns (string memory) {\n      return uri;\n    }\n\n\n\n    function uint2str(uint256 _i) internal pure returns (string memory str) {\n        if (_i == 0) {\n          return \"0\";\n        }\n        uint256 j = _i;\n        uint256 length;\n        while (j != 0) {\n          length++;\n          j /= 10;\n        }\n        bytes memory bstr = new bytes(length);\n        uint256 k = length;\n        j = _i;\n        while (j != 0) {\n          bstr[--k] = bytes1(uint8(48 + j % 10));\n          j /= 10;\n        }\n        str = string(bstr);\n        return str;\n    }\n}\n\n// const contract = await CryptoLienzNFT.deployed();\n\n// contract.awardItem(\"0x63126293FA2E90d87aCF90A79134A2761943136b\", \"https://upload.wikimedia.org/wikipedia/commons/thumb/0/05/Ethereum_logo_2014.svg/256px-Ethereum_logo_2014.svg.png\")",
  "sourcePath": "/home/marc-olivier/Projects/cryptolienzContract/contracts/CryptoLienzNFT.sol",
  "compiler": {
    "name": "solc",
    "version": "0.8.6+commit.11564f7e.Emscripten.clang"
  },
  "schemaVersion": "3.4.1",
  "updatedAt": "2021-11-25T23:50:48.108Z",
  "networkType": "ethereum",
  "devdoc": {
    "kind": "dev",
    "methods": {
      "approve(address,uint256)": {
        "details": "See {IERC721-approve}."
      },
      "balanceOf(address)": {
        "details": "See {IERC721-balanceOf}."
      },
      "getApproved(uint256)": {
        "details": "See {IERC721-getApproved}."
      },
      "isApprovedForAll(address,address)": {
        "details": "See {IERC721-isApprovedForAll}."
      },
      "name()": {
        "details": "See {IERC721Metadata-name}."
      },
      "owner()": {
        "details": "Returns the address of the current owner."
      },
      "ownerOf(uint256)": {
        "details": "See {IERC721-ownerOf}."
      },
      "renounceOwnership()": {
        "details": "Leaves the contract without owner. It will not be possible to call `onlyOwner` functions anymore. Can only be called by the current owner. NOTE: Renouncing ownership will leave the contract without an owner, thereby removing any functionality that is only available to the owner."
      },
      "safeTransferFrom(address,address,uint256)": {
        "details": "See {IERC721-safeTransferFrom}."
      },
      "safeTransferFrom(address,address,uint256,bytes)": {
        "details": "See {IERC721-safeTransferFrom}."
      },
      "setApprovalForAll(address,bool)": {
        "details": "See {IERC721-setApprovalForAll}."
      },
      "supportsInterface(bytes4)": {
        "details": "See {IERC165-supportsInterface}."
      },
      "symbol()": {
        "details": "See {IERC721Metadata-symbol}."
      },
      "tokenURI(uint256)": {
        "details": "See {IERC721Metadata-tokenURI}."
      },
      "transferFrom(address,address,uint256)": {
        "details": "See {IERC721-transferFrom}."
      },
      "transferOwnership(address)": {
        "details": "Transfers ownership of the contract to a new account (`newOwner`). Can only be called by the current owner."
      }
    },
    "version": 1
  },
  "userdoc": {
    "kind": "user",
    "methods": {},
    "version": 1
  }
}