{
  "contractName": "CryptoLienzNFT",
  "abi": [
    {
      "inputs": [],
      "stateMutability": "nonpayable",
      "type": "constructor"
    },
    {
      "anonymous": false,
      "inputs": [
        {
          "indexed": true,
          "internalType": "address",
          "name": "owner",
          "type": "address"
        },
        {
          "indexed": true,
          "internalType": "address",
          "name": "approved",
          "type": "address"
        },
        {
          "indexed": true,
          "internalType": "uint256",
          "name": "tokenId",
          "type": "uint256"
        }
      ],
      "name": "Approval",
      "type": "event"
    },
    {
      "anonymous": false,
      "inputs": [
        {
          "indexed": true,
          "internalType": "address",
          "name": "owner",
          "type": "address"
        },
        {
          "indexed": true,
          "internalType": "address",
          "name": "operator",
          "type": "address"
        },
        {
          "indexed": false,
          "internalType": "bool",
          "name": "approved",
          "type": "bool"
        }
      ],
      "name": "ApprovalForAll",
      "type": "event"
    },
    {
      "anonymous": false,
      "inputs": [
        {
          "indexed": true,
          "internalType": "address",
          "name": "_from",
          "type": "address"
        },
        {
          "indexed": false,
          "internalType": "string",
          "name": "url",
          "type": "string"
        },
        {
          "indexed": false,
          "internalType": "uint256",
          "name": "times",
          "type": "uint256"
        }
      ],
      "name": "MintNFT",
      "type": "event"
    },
    {
      "anonymous": false,
      "inputs": [
        {
          "indexed": true,
          "internalType": "address",
          "name": "previousOwner",
          "type": "address"
        },
        {
          "indexed": true,
          "internalType": "address",
          "name": "newOwner",
          "type": "address"
        }
      ],
      "name": "OwnershipTransferred",
      "type": "event"
    },
    {
      "anonymous": false,
      "inputs": [
        {
          "indexed": true,
          "internalType": "address",
          "name": "from",
          "type": "address"
        },
        {
          "indexed": true,
          "internalType": "address",
          "name": "to",
          "type": "address"
        },
        {
          "indexed": true,
          "internalType": "uint256",
          "name": "tokenId",
          "type": "uint256"
        }
      ],
      "name": "Transfer",
      "type": "event"
    },
    {
      "inputs": [
        {
          "internalType": "address",
          "name": "to",
          "type": "address"
        },
        {
          "internalType": "uint256",
          "name": "tokenId",
          "type": "uint256"
        }
      ],
      "name": "approve",
      "outputs": [],
      "stateMutability": "nonpayable",
      "type": "function"
    },
    {
      "inputs": [
        {
          "internalType": "address",
          "name": "owner",
          "type": "address"
        }
      ],
      "name": "balanceOf",
      "outputs": [
        {
          "internalType": "uint256",
          "name": "",
          "type": "uint256"
        }
      ],
      "stateMutability": "view",
      "type": "function",
      "constant": true
    },
    {
      "inputs": [
        {
          "internalType": "uint256",
          "name": "tokenId",
          "type": "uint256"
        }
      ],
      "name": "getApproved",
      "outputs": [
        {
          "internalType": "address",
          "name": "",
          "type": "address"
        }
      ],
      "stateMutability": "view",
      "type": "function",
      "constant": true
    },
    {
      "inputs": [
        {
          "internalType": "address",
          "name": "owner",
          "type": "address"
        },
        {
          "internalType": "address",
          "name": "operator",
          "type": "address"
        }
      ],
      "name": "isApprovedForAll",
      "outputs": [
        {
          "internalType": "bool",
          "name": "",
          "type": "bool"
        }
      ],
      "stateMutability": "view",
      "type": "function",
      "constant": true
    },
    {
      "inputs": [],
      "name": "maxBatch",
      "outputs": [
        {
          "internalType": "uint256",
          "name": "",
          "type": "uint256"
        }
      ],
      "stateMutability": "view",
      "type": "function",
      "constant": true
    },
    {
      "inputs": [],
      "name": "maxMintcount",
      "outputs": [
        {
          "internalType": "uint256",
          "name": "",
          "type": "uint256"
        }
      ],
      "stateMutability": "view",
      "type": "function",
      "constant": true
    },
    {
      "inputs": [],
      "name": "minter",
      "outputs": [
        {
          "internalType": "address payable",
          "name": "",
          "type": "address"
        }
      ],
      "stateMutability": "view",
      "type": "function",
      "constant": true
    },
    {
      "inputs": [
        {
          "internalType": "address",
          "name": "",
          "type": "address"
        }
      ],
      "name": "mintlist",
      "outputs": [
        {
          "internalType": "bool",
          "name": "",
          "type": "bool"
        }
      ],
      "stateMutability": "view",
      "type": "function",
      "constant": true
    },
    {
      "inputs": [],
      "name": "name",
      "outputs": [
        {
          "internalType": "string",
          "name": "",
          "type": "string"
        }
      ],
      "stateMutability": "view",
      "type": "function",
      "constant": true
    },
    {
      "inputs": [],
      "name": "owner",
      "outputs": [
        {
          "internalType": "address",
          "name": "",
          "type": "address"
        }
      ],
      "stateMutability": "view",
      "type": "function",
      "constant": true
    },
    {
      "inputs": [
        {
          "internalType": "uint256",
          "name": "tokenId",
          "type": "uint256"
        }
      ],
      "name": "ownerOf",
      "outputs": [
        {
          "internalType": "address",
          "name": "",
          "type": "address"
        }
      ],
      "stateMutability": "view",
      "type": "function",
      "constant": true
    },
    {
      "inputs": [],
      "name": "price",
      "outputs": [
        {
          "internalType": "uint256",
          "name": "",
          "type": "uint256"
        }
      ],
      "stateMutability": "view",
      "type": "function",
      "constant": true
    },
    {
      "inputs": [],
      "name": "renounceOwnership",
      "outputs": [],
      "stateMutability": "nonpayable",
      "type": "function"
    },
    {
      "inputs": [
        {
          "internalType": "address",
          "name": "from",
          "type": "address"
        },
        {
          "internalType": "address",
          "name": "to",
          "type": "address"
        },
        {
          "internalType": "uint256",
          "name": "tokenId",
          "type": "uint256"
        }
      ],
      "name": "safeTransferFrom",
      "outputs": [],
      "stateMutability": "nonpayable",
      "type": "function"
    },
    {
      "inputs": [
        {
          "internalType": "address",
          "name": "from",
          "type": "address"
        },
        {
          "internalType": "address",
          "name": "to",
          "type": "address"
        },
        {
          "internalType": "uint256",
          "name": "tokenId",
          "type": "uint256"
        },
        {
          "internalType": "bytes",
          "name": "_data",
          "type": "bytes"
        }
      ],
      "name": "safeTransferFrom",
      "outputs": [],
      "stateMutability": "nonpayable",
      "type": "function"
    },
    {
      "inputs": [
        {
          "internalType": "address",
          "name": "operator",
          "type": "address"
        },
        {
          "internalType": "bool",
          "name": "approved",
          "type": "bool"
        }
      ],
      "name": "setApprovalForAll",
      "outputs": [],
      "stateMutability": "nonpayable",
      "type": "function"
    },
    {
      "inputs": [],
      "name": "started",
      "outputs": [
        {
          "internalType": "bool",
          "name": "",
          "type": "bool"
        }
      ],
      "stateMutability": "view",
      "type": "function",
      "constant": true
    },
    {
      "inputs": [
        {
          "internalType": "bytes4",
          "name": "interfaceId",
          "type": "bytes4"
        }
      ],
      "name": "supportsInterface",
      "outputs": [
        {
          "internalType": "bool",
          "name": "",
          "type": "bool"
        }
      ],
      "stateMutability": "view",
      "type": "function",
      "constant": true
    },
    {
      "inputs": [],
      "name": "symbol",
      "outputs": [
        {
          "internalType": "string",
          "name": "",
          "type": "string"
        }
      ],
      "stateMutability": "view",
      "type": "function",
      "constant": true
    },
    {
      "inputs": [
        {
          "internalType": "uint256",
          "name": "tokenId",
          "type": "uint256"
        }
      ],
      "name": "tokenURI",
      "outputs": [
        {
          "internalType": "string",
          "name": "",
          "type": "string"
        }
      ],
      "stateMutability": "view",
      "type": "function",
      "constant": true
    },
    {
      "inputs": [],
      "name": "totalCount",
      "outputs": [
        {
          "internalType": "uint256",
          "name": "",
          "type": "uint256"
        }
      ],
      "stateMutability": "view",
      "type": "function",
      "constant": true
    },
    {
      "inputs": [
        {
          "internalType": "address",
          "name": "from",
          "type": "address"
        },
        {
          "internalType": "address",
          "name": "to",
          "type": "address"
        },
        {
          "internalType": "uint256",
          "name": "tokenId",
          "type": "uint256"
        }
      ],
      "name": "transferFrom",
      "outputs": [],
      "stateMutability": "nonpayable",
      "type": "function"
    },
    {
      "inputs": [
        {
          "internalType": "address",
          "name": "newOwner",
          "type": "address"
        }
      ],
      "name": "transferOwnership",
      "outputs": [],
      "stateMutability": "nonpayable",
      "type": "function"
    },
    {
      "inputs": [
        {
          "internalType": "uint256",
          "name": "_times",
          "type": "uint256"
        }
      ],
      "name": "mintNFT",
      "outputs": [],
      "stateMutability": "payable",
      "type": "function",
      "payable": true
    },
    {
      "inputs": [],
      "name": "totalSupply",
      "outputs": [
        {
          "internalType": "uint256",
          "name": "",
          "type": "uint256"
        }
      ],
      "stateMutability": "view",
      "type": "function",
      "constant": true
    },
    {
      "inputs": [
        {
          "internalType": "address payable",
          "name": "_wallet",
          "type": "address"
        }
      ],
      "name": "withdraw",
      "outputs": [],
      "stateMutability": "payable",
      "type": "function",
      "payable": true
    },
    {
      "inputs": [
        {
          "internalType": "bool",
          "name": "_start",
          "type": "bool"
        }
      ],
      "name": "setStart",
      "outputs": [],
      "stateMutability": "nonpayable",
      "type": "function"
    },
    {
      "inputs": [],
      "name": "baseTokenURI",
      "outputs": [
        {
          "internalType": "string",
          "name": "",
          "type": "string"
        }
      ],
      "stateMutability": "view",
      "type": "function",
      "constant": true
    },
    {
      "inputs": [
        {
          "internalType": "string",
          "name": "_baseURI",
          "type": "string"
        }
      ],
      "name": "setBaseTokenURI",
      "outputs": [],
      "stateMutability": "nonpayable",
      "type": "function"
    }
  ],
  "bytecode": "0x60806040526005600a556005600b5560c8600c5566d529ae9e860000600d556000600f60006101000a81548160ff02191690831515021790555060405180602001604052806000815250601090805190602001906200006092919062000244565b503480156200006e57600080fd5b506040518060400160405280600e81526020017f43727970746f4c69656e7a4e46540000000000000000000000000000000000008152506040518060400160405280600581526020017f434c4e46540000000000000000000000000000000000000000000000000000008152508160009080519060200190620000f392919062000244565b5080600190805190602001906200010c92919062000244565b5050506200012f620001236200017660201b60201c565b6200017e60201b60201c565b33600960006101000a81548173ffffffffffffffffffffffffffffffffffffffff021916908373ffffffffffffffffffffffffffffffffffffffff16021790555062000359565b600033905090565b6000600760009054906101000a900473ffffffffffffffffffffffffffffffffffffffff16905081600760006101000a81548173ffffffffffffffffffffffffffffffffffffffff021916908373ffffffffffffffffffffffffffffffffffffffff1602179055508173ffffffffffffffffffffffffffffffffffffffff168173ffffffffffffffffffffffffffffffffffffffff167f8be0079c531659141344cd1fd0a4f28419497f9722a3daafe3b4186f6b6457e060405160405180910390a35050565b8280546200025290620002f4565b90600052602060002090601f016020900481019282620002765760008555620002c2565b82601f106200029157805160ff1916838001178555620002c2565b82800160010185558215620002c2579182015b82811115620002c1578251825591602001919060010190620002a4565b5b509050620002d19190620002d5565b5090565b5b80821115620002f0576000816000905550600101620002d6565b5090565b600060028204905060018216806200030d57607f821691505b602082108114156200032457620003236200032a565b5b50919050565b7f4e487b7100000000000000000000000000000000000000000000000000000000600052602260045260246000fd5b613f5480620003696000396000f3fe6080604052600436106101c25760003560e01c806368e24327116100f7578063a035b1fe11610095578063d547cfb711610064578063d547cfb714610626578063e985e9c514610651578063f2fde38b1461068e578063fbe6dc19146106b7576101c2565b8063a035b1fe1461056c578063a22cb46514610597578063b88d4fde146105c0578063c87b56dd146105e9576101c2565b8063715018a6116100d1578063715018a6146104e35780638da5cb5b146104fa578063926427441461052557806395d89b4114610541576101c2565b806368e24327146104405780636fc6cbc51461046957806370a08231146104a6576101c2565b806323b872dd1161016457806342842e0e1161013e57806342842e0e1461039357806351cff8d9146103bc5780636352211e146103d857806367765b8714610415576101c2565b806323b872dd1461031657806330176e131461033f57806334eafb1114610368576101c2565b8063081812fc116101a0578063081812fc1461025a578063095ea7b31461029757806318160ddd146102c05780631f2698ab146102eb576101c2565b806301ffc9a7146101c757806306fdde0314610204578063075461721461022f575b600080fd5b3480156101d357600080fd5b506101ee60048036038101906101e991906129d8565b6106e2565b6040516101fb9190613018565b60405180910390f35b34801561021057600080fd5b506102196107c4565b6040516102269190613033565b60405180910390f35b34801561023b57600080fd5b50610244610856565b6040516102519190612fb1565b60405180910390f35b34801561026657600080fd5b50610281600480360381019061027c9190612a7b565b61087c565b60405161028e9190612f96565b60405180910390f35b3480156102a357600080fd5b506102be60048036038101906102b9919061296b565b610901565b005b3480156102cc57600080fd5b506102d5610a19565b6040516102e29190613385565b60405180910390f35b3480156102f757600080fd5b50610300610a2a565b60405161030d9190613018565b60405180910390f35b34801561032257600080fd5b5061033d60048036038101906103389190612855565b610a3d565b005b34801561034b57600080fd5b5061036660048036038101906103619190612a32565b610a9d565b005b34801561037457600080fd5b5061037d610b47565b60405161038a9190613385565b60405180910390f35b34801561039f57600080fd5b506103ba60048036038101906103b59190612855565b610b4d565b005b6103d660048036038101906103d191906127e8565b610b6d565b005b3480156103e457600080fd5b506103ff60048036038101906103fa9190612a7b565b610c47565b60405161040c9190612f96565b60405180910390f35b34801561042157600080fd5b5061042a610cf9565b6040516104379190613385565b60405180910390f35b34801561044c57600080fd5b50610467600480360381019061046291906129ab565b610cff565b005b34801561047557600080fd5b50610490600480360381019061048b91906127bb565b610dac565b60405161049d9190613018565b60405180910390f35b3480156104b257600080fd5b506104cd60048036038101906104c891906127bb565b610dcc565b6040516104da9190613385565b60405180910390f35b3480156104ef57600080fd5b506104f8610e84565b005b34801561050657600080fd5b5061050f610f0c565b60405161051c9190612f96565b60405180910390f35b61053f600480360381019061053a9190612a7b565b610f36565b005b34801561054d57600080fd5b50610556611239565b6040516105639190613033565b60405180910390f35b34801561057857600080fd5b506105816112cb565b60405161058e9190613385565b60405180910390f35b3480156105a357600080fd5b506105be60048036038101906105b9919061292b565b6112d1565b005b3480156105cc57600080fd5b506105e760048036038101906105e291906128a8565b6112e7565b005b3480156105f557600080fd5b50610610600480360381019061060b9190612a7b565b611349565b60405161061d9190613033565b60405180910390f35b34801561063257600080fd5b5061063b61149b565b6040516106489190613033565b60405180910390f35b34801561065d57600080fd5b5061067860048036038101906106739190612815565b61152d565b6040516106859190613018565b60405180910390f35b34801561069a57600080fd5b506106b560048036038101906106b091906127bb565b6115c1565b005b3480156106c357600080fd5b506106cc6116b9565b6040516106d99190613385565b60405180910390f35b60007f80ac58cd000000000000000000000000000000000000000000000000000000007bffffffffffffffffffffffffffffffffffffffffffffffffffffffff1916827bffffffffffffffffffffffffffffffffffffffffffffffffffffffff191614806107ad57507f5b5e139f000000000000000000000000000000000000000000000000000000007bffffffffffffffffffffffffffffffffffffffffffffffffffffffff1916827bffffffffffffffffffffffffffffffffffffffffffffffffffffffff1916145b806107bd57506107bc826116bf565b5b9050919050565b6060600080546107d390613686565b80601f01602080910402602001604051908101604052809291908181526020018280546107ff90613686565b801561084c5780601f106108215761010080835404028352916020019161084c565b820191906000526020600020905b81548152906001019060200180831161082f57829003601f168201915b5050505050905090565b600960009054906101000a900473ffffffffffffffffffffffffffffffffffffffff1681565b600061088782611729565b6108c6576040517f08c379a00000000000000000000000000000000000000000000000000000000081526004016108bd90613285565b60405180910390fd5b6004600083815260200190815260200160002060009054906101000a900473ffffffffffffffffffffffffffffffffffffffff169050919050565b600061090c82610c47565b90508073ffffffffffffffffffffffffffffffffffffffff168373ffffffffffffffffffffffffffffffffffffffff16141561097d576040517f08c379a000000000000000000000000000000000000000000000000000000000815260040161097490613325565b60405180910390fd5b8073ffffffffffffffffffffffffffffffffffffffff1661099c611795565b73ffffffffffffffffffffffffffffffffffffffff1614806109cb57506109ca816109c5611795565b61152d565b5b610a0a576040517f08c379a0000000000000000000000000000000000000000000000000000000008152600401610a01906131c5565b60405180910390fd5b610a14838361179d565b505050565b6000610a256008611856565b905090565b600f60009054906101000a900460ff1681565b610a4e610a48611795565b82611864565b610a8d576040517f08c379a0000000000000000000000000000000000000000000000000000000008152600401610a8490613345565b60405180910390fd5b610a98838383611942565b505050565b600960009054906101000a900473ffffffffffffffffffffffffffffffffffffffff1673ffffffffffffffffffffffffffffffffffffffff163373ffffffffffffffffffffffffffffffffffffffff1614610b2d576040517f08c379a0000000000000000000000000000000000000000000000000000000008152600401610b2490613305565b60405180910390fd5b8060109080519060200190610b439291906125ba565b5050565b600c5481565b610b68838383604051806020016040528060008152506112e7565b505050565b600960009054906101000a900473ffffffffffffffffffffffffffffffffffffffff1673ffffffffffffffffffffffffffffffffffffffff163373ffffffffffffffffffffffffffffffffffffffff1614610bfd576040517f08c379a0000000000000000000000000000000000000000000000000000000008152600401610bf490613305565b60405180910390fd5b8073ffffffffffffffffffffffffffffffffffffffff166108fc479081150290604051600060405180830381858888f19350505050158015610c43573d6000803e3d6000fd5b5050565b6000806002600084815260200190815260200160002060009054906101000a900473ffffffffffffffffffffffffffffffffffffffff169050600073ffffffffffffffffffffffffffffffffffffffff168173ffffffffffffffffffffffffffffffffffffffff161415610cf0576040517f08c379a0000000000000000000000000000000000000000000000000000000008152600401610ce790613205565b60405180910390fd5b80915050919050565b600a5481565b600960009054906101000a900473ffffffffffffffffffffffffffffffffffffffff1673ffffffffffffffffffffffffffffffffffffffff163373ffffffffffffffffffffffffffffffffffffffff1614610d8f576040517f08c379a0000000000000000000000000000000000000000000000000000000008152600401610d8690613305565b60405180910390fd5b80600f60006101000a81548160ff02191690831515021790555050565b600e6020528060005260406000206000915054906101000a900460ff1681565b60008073ffffffffffffffffffffffffffffffffffffffff168273ffffffffffffffffffffffffffffffffffffffff161415610e3d576040517f08c379a0000000000000000000000000000000000000000000000000000000008152600401610e34906131e5565b60405180910390fd5b600360008373ffffffffffffffffffffffffffffffffffffffff1673ffffffffffffffffffffffffffffffffffffffff168152602001908152602001600020549050919050565b610e8c611795565b73ffffffffffffffffffffffffffffffffffffffff16610eaa610f0c565b73ffffffffffffffffffffffffffffffffffffffff1614610f00576040517f08c379a0000000000000000000000000000000000000000000000000000000008152600401610ef7906132a5565b60405180910390fd5b610f0a6000611b9e565b565b6000600760009054906101000a900473ffffffffffffffffffffffffffffffffffffffff16905090565b600f60009054906101000a900460ff16610f85576040517f08c379a0000000000000000000000000000000000000000000000000000000008152600401610f7c90613365565b60405180910390fd5b600081118015610f975750600a548111155b610fd6576040517f08c379a0000000000000000000000000000000000000000000000000000000008152600401610fcd90613145565b60405180910390fd5b600c5481610fe46008611856565b610fee919061347f565b111561102f576040517f08c379a0000000000000000000000000000000000000000000000000000000008152600401611026906130a5565b60405180910390fd5b600d548161103d9190613506565b341461107e576040517f08c379a000000000000000000000000000000000000000000000000000000000815260040161107590613125565b60405180910390fd5b60011515600e60003373ffffffffffffffffffffffffffffffffffffffff1673ffffffffffffffffffffffffffffffffffffffff16815260200190815260200160002060009054906101000a900460ff1615151415611112576040517f08c379a0000000000000000000000000000000000000000000000000000000008152600401611109906130e5565b60405180910390fd5b6001600e60003373ffffffffffffffffffffffffffffffffffffffff1673ffffffffffffffffffffffffffffffffffffffff16815260200190815260200160002060006101000a81548160ff02191690831515021790555060005b818110156112355761117f6008611c64565b600061118b6008611856565b90506111973382611c7a565b600060106111a483611e48565b6040516020016111b5929190612f72565b60405160208183030381529060405290503373ffffffffffffffffffffffffffffffffffffffff167f28c48897c00eeaf23cf918f3d080d78bafea4bf929e963d04d1683db110de350828660405161120e929190613055565b60405180910390a26112208282611faf565b5050808061122d906136e9565b91505061116d565b5050565b60606001805461124890613686565b80601f016020809104026020016040519081016040528092919081815260200182805461127490613686565b80156112c15780601f10611296576101008083540402835291602001916112c1565b820191906000526020600020905b8154815290600101906020018083116112a457829003601f168201915b5050505050905090565b600d5481565b6112e36112dc611795565b8383612023565b5050565b6112f86112f2611795565b83611864565b611337576040517f08c379a000000000000000000000000000000000000000000000000000000000815260040161132e90613345565b60405180910390fd5b61134384848484612190565b50505050565b606061135482611729565b611393576040517f08c379a000000000000000000000000000000000000000000000000000000000815260040161138a90613265565b60405180910390fd5b60006006600084815260200190815260200160002080546113b390613686565b80601f01602080910402602001604051908101604052809291908181526020018280546113df90613686565b801561142c5780601f106114015761010080835404028352916020019161142c565b820191906000526020600020905b81548152906001019060200180831161140f57829003601f168201915b50505050509050600061143d6121ec565b9050600081511415611453578192505050611496565b600082511115611488578082604051602001611470929190612f4e565b60405160208183030381529060405292505050611496565b61149184612203565b925050505b919050565b6060601080546114aa90613686565b80601f01602080910402602001604051908101604052809291908181526020018280546114d690613686565b80156115235780601f106114f857610100808354040283529160200191611523565b820191906000526020600020905b81548152906001019060200180831161150657829003601f168201915b5050505050905090565b6000600560008473ffffffffffffffffffffffffffffffffffffffff1673ffffffffffffffffffffffffffffffffffffffff16815260200190815260200160002060008373ffffffffffffffffffffffffffffffffffffffff1673ffffffffffffffffffffffffffffffffffffffff16815260200190815260200160002060009054906101000a900460ff16905092915050565b6115c9611795565b73ffffffffffffffffffffffffffffffffffffffff166115e7610f0c565b73ffffffffffffffffffffffffffffffffffffffff161461163d576040517f08c379a0000000000000000000000000000000000000000000000000000000008152600401611634906132a5565b60405180910390fd5b600073ffffffffffffffffffffffffffffffffffffffff168173ffffffffffffffffffffffffffffffffffffffff1614156116ad576040517f08c379a00000000000000000000000000000000000000000000000000000000081526004016116a4906130c5565b60405180910390fd5b6116b681611b9e565b50565b600b5481565b60007f01ffc9a7000000000000000000000000000000000000000000000000000000007bffffffffffffffffffffffffffffffffffffffffffffffffffffffff1916827bffffffffffffffffffffffffffffffffffffffffffffffffffffffff1916149050919050565b60008073ffffffffffffffffffffffffffffffffffffffff166002600084815260200190815260200160002060009054906101000a900473ffffffffffffffffffffffffffffffffffffffff1673ffffffffffffffffffffffffffffffffffffffff1614159050919050565b600033905090565b816004600083815260200190815260200160002060006101000a81548173ffffffffffffffffffffffffffffffffffffffff021916908373ffffffffffffffffffffffffffffffffffffffff160217905550808273ffffffffffffffffffffffffffffffffffffffff1661181083610c47565b73ffffffffffffffffffffffffffffffffffffffff167f8c5be1e5ebec7d5bd14f71427d1e84f3dd0314c0f7b2291e5b200ac8c7c3b92560405160405180910390a45050565b600081600001549050919050565b600061186f82611729565b6118ae576040517f08c379a00000000000000000000000000000000000000000000000000000000081526004016118a5906131a5565b60405180910390fd5b60006118b983610c47565b90508073ffffffffffffffffffffffffffffffffffffffff168473ffffffffffffffffffffffffffffffffffffffff16148061192857508373ffffffffffffffffffffffffffffffffffffffff166119108461087c565b73ffffffffffffffffffffffffffffffffffffffff16145b806119395750611938818561152d565b5b91505092915050565b8273ffffffffffffffffffffffffffffffffffffffff1661196282610c47565b73ffffffffffffffffffffffffffffffffffffffff16146119b8576040517f08c379a00000000000000000000000000000000000000000000000000000000081526004016119af906132c5565b60405180910390fd5b600073ffffffffffffffffffffffffffffffffffffffff168273ffffffffffffffffffffffffffffffffffffffff161415611a28576040517f08c379a0000000000000000000000000000000000000000000000000000000008152600401611a1f90613165565b60405180910390fd5b611a338383836122aa565b611a3e60008261179d565b6001600360008573ffffffffffffffffffffffffffffffffffffffff1673ffffffffffffffffffffffffffffffffffffffff1681526020019081526020016000206000828254611a8e9190613560565b925050819055506001600360008473ffffffffffffffffffffffffffffffffffffffff1673ffffffffffffffffffffffffffffffffffffffff1681526020019081526020016000206000828254611ae5919061347f565b92505081905550816002600083815260200190815260200160002060006101000a81548173ffffffffffffffffffffffffffffffffffffffff021916908373ffffffffffffffffffffffffffffffffffffffff160217905550808273ffffffffffffffffffffffffffffffffffffffff168473ffffffffffffffffffffffffffffffffffffffff167fddf252ad1be2c89b69c2b068fc378daa952ba7f163c4a11628f55a4df523b3ef60405160405180910390a4505050565b6000600760009054906101000a900473ffffffffffffffffffffffffffffffffffffffff16905081600760006101000a81548173ffffffffffffffffffffffffffffffffffffffff021916908373ffffffffffffffffffffffffffffffffffffffff1602179055508173ffffffffffffffffffffffffffffffffffffffff168173ffffffffffffffffffffffffffffffffffffffff167f8be0079c531659141344cd1fd0a4f28419497f9722a3daafe3b4186f6b6457e060405160405180910390a35050565b6001816000016000828254019250508190555050565b600073ffffffffffffffffffffffffffffffffffffffff168273ffffffffffffffffffffffffffffffffffffffff161415611cea576040517f08c379a0000000000000000000000000000000000000000000000000000000008152600401611ce190613245565b60405180910390fd5b611cf381611729565b15611d33576040517f08c379a0000000000000000000000000000000000000000000000000000000008152600401611d2a90613105565b60405180910390fd5b611d3f600083836122aa565b6001600360008473ffffffffffffffffffffffffffffffffffffffff1673ffffffffffffffffffffffffffffffffffffffff1681526020019081526020016000206000828254611d8f919061347f565b92505081905550816002600083815260200190815260200160002060006101000a81548173ffffffffffffffffffffffffffffffffffffffff021916908373ffffffffffffffffffffffffffffffffffffffff160217905550808273ffffffffffffffffffffffffffffffffffffffff16600073ffffffffffffffffffffffffffffffffffffffff167fddf252ad1be2c89b69c2b068fc378daa952ba7f163c4a11628f55a4df523b3ef60405160405180910390a45050565b60606000821415611e90576040518060400160405280600181526020017f30000000000000000000000000000000000000000000000000000000000000008152509050611faa565b600082905060005b60008214611ec2578080611eab906136e9565b915050600a82611ebb91906134d5565b9150611e98565b60008167ffffffffffffffff811115611ede57611edd61381f565b5b6040519080825280601f01601f191660200182016040528015611f105781602001600182028036833780820191505090505b50905060008290508593505b60008414611fa257600a84611f319190613732565b6030611f3d919061347f565b60f81b8282611f4b9061365c565b92508281518110611f5f57611f5e6137f0565b5b60200101907effffffffffffffffffffffffffffffffffffffffffffffffffffffffffffff1916908160001a905350600a84611f9b91906134d5565b9350611f1c565b819450505050505b919050565b611fb882611729565b611ff7576040517f08c379a0000000000000000000000000000000000000000000000000000000008152600401611fee90613225565b60405180910390fd5b8060066000848152602001908152602001600020908051906020019061201e9291906125ba565b505050565b8173ffffffffffffffffffffffffffffffffffffffff168373ffffffffffffffffffffffffffffffffffffffff161415612092576040517f08c379a000000000000000000000000000000000000000000000000000000000815260040161208990613185565b60405180910390fd5b80600560008573ffffffffffffffffffffffffffffffffffffffff1673ffffffffffffffffffffffffffffffffffffffff16815260200190815260200160002060008473ffffffffffffffffffffffffffffffffffffffff1673ffffffffffffffffffffffffffffffffffffffff16815260200190815260200160002060006101000a81548160ff0219169083151502179055508173ffffffffffffffffffffffffffffffffffffffff168373ffffffffffffffffffffffffffffffffffffffff167f17307eab39ab6107e8899845ad3d59bd9653f200f220920489ca2b5937696c31836040516121839190613018565b60405180910390a3505050565b61219b848484611942565b6121a7848484846122af565b6121e6576040517f08c379a00000000000000000000000000000000000000000000000000000000081526004016121dd90613085565b60405180910390fd5b50505050565b606060405180602001604052806000815250905090565b606061220e82611729565b61224d576040517f08c379a0000000000000000000000000000000000000000000000000000000008152600401612244906132e5565b60405180910390fd5b60006122576121ec565b9050600081511161227757604051806020016040528060008152506122a2565b8061228184612446565b604051602001612292929190612f4e565b6040516020818303038152906040525b915050919050565b505050565b60006122d08473ffffffffffffffffffffffffffffffffffffffff166125a7565b15612439578373ffffffffffffffffffffffffffffffffffffffff1663150b7a026122f9611795565b8786866040518563ffffffff1660e01b815260040161231b9493929190612fcc565b602060405180830381600087803b15801561233557600080fd5b505af192505050801561236657506040513d601f19601f820116820180604052508101906123639190612a05565b60015b6123e9573d8060008114612396576040519150601f19603f3d011682016040523d82523d6000602084013e61239b565b606091505b506000815114156123e1576040517f08c379a00000000000000000000000000000000000000000000000000000000081526004016123d890613085565b60405180910390fd5b805181602001fd5b63150b7a0260e01b7bffffffffffffffffffffffffffffffffffffffffffffffffffffffff1916817bffffffffffffffffffffffffffffffffffffffffffffffffffffffff19161491505061243e565b600190505b949350505050565b6060600082141561248e576040518060400160405280600181526020017f300000000000000000000000000000000000000000000000000000000000000081525090506125a2565b600082905060005b600082146124c05780806124a9906136e9565b915050600a826124b991906134d5565b9150612496565b60008167ffffffffffffffff8111156124dc576124db61381f565b5b6040519080825280601f01601f19166020018201604052801561250e5781602001600182028036833780820191505090505b5090505b6000851461259b576001826125279190613560565b9150600a856125369190613732565b6030612542919061347f565b60f81b818381518110612558576125576137f0565b5b60200101907effffffffffffffffffffffffffffffffffffffffffffffffffffffffffffff1916908160001a905350600a8561259491906134d5565b9450612512565b8093505050505b919050565b600080823b905060008111915050919050565b8280546125c690613686565b90600052602060002090601f0160209004810192826125e8576000855561262f565b82601f1061260157805160ff191683800117855561262f565b8280016001018555821561262f579182015b8281111561262e578251825591602001919060010190612613565b5b50905061263c9190612640565b5090565b5b80821115612659576000816000905550600101612641565b5090565b600061267061266b846133c5565b6133a0565b90508281526020810184848401111561268c5761268b613853565b5b61269784828561361a565b509392505050565b60006126b26126ad846133f6565b6133a0565b9050828152602081018484840111156126ce576126cd613853565b5b6126d984828561361a565b509392505050565b6000813590506126f081613eab565b92915050565b60008135905061270581613ec2565b92915050565b60008135905061271a81613ed9565b92915050565b60008135905061272f81613ef0565b92915050565b60008151905061274481613ef0565b92915050565b600082601f83011261275f5761275e61384e565b5b813561276f84826020860161265d565b91505092915050565b600082601f83011261278d5761278c61384e565b5b813561279d84826020860161269f565b91505092915050565b6000813590506127b581613f07565b92915050565b6000602082840312156127d1576127d061385d565b5b60006127df848285016126e1565b91505092915050565b6000602082840312156127fe576127fd61385d565b5b600061280c848285016126f6565b91505092915050565b6000806040838503121561282c5761282b61385d565b5b600061283a858286016126e1565b925050602061284b858286016126e1565b9150509250929050565b60008060006060848603121561286e5761286d61385d565b5b600061287c868287016126e1565b935050602061288d868287016126e1565b925050604061289e868287016127a6565b9150509250925092565b600080600080608085870312156128c2576128c161385d565b5b60006128d0878288016126e1565b94505060206128e1878288016126e1565b93505060406128f2878288016127a6565b925050606085013567ffffffffffffffff81111561291357612912613858565b5b61291f8782880161274a565b91505092959194509250565b600080604083850312156129425761294161385d565b5b6000612950858286016126e1565b92505060206129618582860161270b565b9150509250929050565b600080604083850312156129825761298161385d565b5b6000612990858286016126e1565b92505060206129a1858286016127a6565b9150509250929050565b6000602082840312156129c1576129c061385d565b5b60006129cf8482850161270b565b91505092915050565b6000602082840312156129ee576129ed61385d565b5b60006129fc84828501612720565b91505092915050565b600060208284031215612a1b57612a1a61385d565b5b6000612a2984828501612735565b91505092915050565b600060208284031215612a4857612a4761385d565b5b600082013567ffffffffffffffff811115612a6657612a65613858565b5b612a7284828501612778565b91505092915050565b600060208284031215612a9157612a9061385d565b5b6000612a9f848285016127a6565b91505092915050565b612ab1816135a6565b82525050565b612ac081613594565b82525050565b612acf816135b8565b82525050565b6000612ae08261343c565b612aea8185613452565b9350612afa818560208601613629565b612b0381613862565b840191505092915050565b6000612b1982613447565b612b238185613463565b9350612b33818560208601613629565b612b3c81613862565b840191505092915050565b6000612b5282613447565b612b5c8185613474565b9350612b6c818560208601613629565b80840191505092915050565b60008154612b8581613686565b612b8f8186613474565b94506001821660008114612baa5760018114612bbb57612bee565b60ff19831686528186019350612bee565b612bc485613427565b60005b83811015612be657815481890152600182019150602081019050612bc7565b838801955050505b50505092915050565b6000612c04603283613463565b9150612c0f82613873565b604082019050919050565b6000612c27601483613463565b9150612c32826138c2565b602082019050919050565b6000612c4a602683613463565b9150612c55826138eb565b604082019050919050565b6000612c6d603583613463565b9150612c788261393a565b604082019050919050565b6000612c90601c83613463565b9150612c9b82613989565b602082019050919050565b6000612cb3601283613463565b9150612cbe826139b2565b602082019050919050565b6000612cd6601283613463565b9150612ce1826139db565b602082019050919050565b6000612cf9602483613463565b9150612d0482613a04565b604082019050919050565b6000612d1c601983613463565b9150612d2782613a53565b602082019050919050565b6000612d3f602c83613463565b9150612d4a82613a7c565b604082019050919050565b6000612d62603883613463565b9150612d6d82613acb565b604082019050919050565b6000612d85602a83613463565b9150612d9082613b1a565b604082019050919050565b6000612da8602983613463565b9150612db382613b69565b604082019050919050565b6000612dcb602e83613463565b9150612dd682613bb8565b604082019050919050565b6000612dee602083613463565b9150612df982613c07565b602082019050919050565b6000612e11603183613463565b9150612e1c82613c30565b604082019050919050565b6000612e34602c83613463565b9150612e3f82613c7f565b604082019050919050565b6000612e57602083613463565b9150612e6282613cce565b602082019050919050565b6000612e7a602983613463565b9150612e8582613cf7565b604082019050919050565b6000612e9d602f83613463565b9150612ea882613d46565b604082019050919050565b6000612ec0602783613463565b9150612ecb82613d95565b604082019050919050565b6000612ee3602183613463565b9150612eee82613de4565b604082019050919050565b6000612f06603183613463565b9150612f1182613e33565b604082019050919050565b6000612f29600b83613463565b9150612f3482613e82565b602082019050919050565b612f4881613610565b82525050565b6000612f5a8285612b47565b9150612f668284612b47565b91508190509392505050565b6000612f7e8285612b78565b9150612f8a8284612b47565b91508190509392505050565b6000602082019050612fab6000830184612ab7565b92915050565b6000602082019050612fc66000830184612aa8565b92915050565b6000608082019050612fe16000830187612ab7565b612fee6020830186612ab7565b612ffb6040830185612f3f565b818103606083015261300d8184612ad5565b905095945050505050565b600060208201905061302d6000830184612ac6565b92915050565b6000602082019050818103600083015261304d8184612b0e565b905092915050565b6000604082019050818103600083015261306f8185612b0e565b905061307e6020830184612f3f565b9392505050565b6000602082019050818103600083015261309e81612bf7565b9050919050565b600060208201905081810360008301526130be81612c1a565b9050919050565b600060208201905081810360008301526130de81612c3d565b9050919050565b600060208201905081810360008301526130fe81612c60565b9050919050565b6000602082019050818103600083015261311e81612c83565b9050919050565b6000602082019050818103600083015261313e81612ca6565b9050919050565b6000602082019050818103600083015261315e81612cc9565b9050919050565b6000602082019050818103600083015261317e81612cec565b9050919050565b6000602082019050818103600083015261319e81612d0f565b9050919050565b600060208201905081810360008301526131be81612d32565b9050919050565b600060208201905081810360008301526131de81612d55565b9050919050565b600060208201905081810360008301526131fe81612d78565b9050919050565b6000602082019050818103600083015261321e81612d9b565b9050919050565b6000602082019050818103600083015261323e81612dbe565b9050919050565b6000602082019050818103600083015261325e81612de1565b9050919050565b6000602082019050818103600083015261327e81612e04565b9050919050565b6000602082019050818103600083015261329e81612e27565b9050919050565b600060208201905081810360008301526132be81612e4a565b9050919050565b600060208201905081810360008301526132de81612e6d565b9050919050565b600060208201905081810360008301526132fe81612e90565b9050919050565b6000602082019050818103600083015261331e81612eb3565b9050919050565b6000602082019050818103600083015261333e81612ed6565b9050919050565b6000602082019050818103600083015261335e81612ef9565b9050919050565b6000602082019050818103600083015261337e81612f1c565b9050919050565b600060208201905061339a6000830184612f3f565b92915050565b60006133aa6133bb565b90506133b682826136b8565b919050565b6000604051905090565b600067ffffffffffffffff8211156133e0576133df61381f565b5b6133e982613862565b9050602081019050919050565b600067ffffffffffffffff8211156134115761341061381f565b5b61341a82613862565b9050602081019050919050565b60008190508160005260206000209050919050565b600081519050919050565b600081519050919050565b600082825260208201905092915050565b600082825260208201905092915050565b600081905092915050565b600061348a82613610565b915061349583613610565b9250827fffffffffffffffffffffffffffffffffffffffffffffffffffffffffffffffff038211156134ca576134c9613763565b5b828201905092915050565b60006134e082613610565b91506134eb83613610565b9250826134fb576134fa613792565b5b828204905092915050565b600061351182613610565b915061351c83613610565b9250817fffffffffffffffffffffffffffffffffffffffffffffffffffffffffffffffff048311821515161561355557613554613763565b5b828202905092915050565b600061356b82613610565b915061357683613610565b92508282101561358957613588613763565b5b828203905092915050565b600061359f826135f0565b9050919050565b60006135b1826135f0565b9050919050565b60008115159050919050565b60007fffffffff0000000000000000000000000000000000000000000000000000000082169050919050565b600073ffffffffffffffffffffffffffffffffffffffff82169050919050565b6000819050919050565b82818337600083830152505050565b60005b8381101561364757808201518184015260208101905061362c565b83811115613656576000848401525b50505050565b600061366782613610565b9150600082141561367b5761367a613763565b5b600182039050919050565b6000600282049050600182168061369e57607f821691505b602082108114156136b2576136b16137c1565b5b50919050565b6136c182613862565b810181811067ffffffffffffffff821117156136e0576136df61381f565b5b80604052505050565b60006136f482613610565b91507fffffffffffffffffffffffffffffffffffffffffffffffffffffffffffffffff82141561372757613726613763565b5b600182019050919050565b600061373d82613610565b915061374883613610565b92508261375857613757613792565b5b828206905092915050565b7f4e487b7100000000000000000000000000000000000000000000000000000000600052601160045260246000fd5b7f4e487b7100000000000000000000000000000000000000000000000000000000600052601260045260246000fd5b7f4e487b7100000000000000000000000000000000000000000000000000000000600052602260045260246000fd5b7f4e487b7100000000000000000000000000000000000000000000000000000000600052603260045260246000fd5b7f4e487b7100000000000000000000000000000000000000000000000000000000600052604160045260246000fd5b600080fd5b600080fd5b600080fd5b600080fd5b6000601f19601f8301169050919050565b7f4552433732313a207472616e7366657220746f206e6f6e20455243373231526560008201527f63656976657220696d706c656d656e7465720000000000000000000000000000602082015250565b7f4e6f7420656e6f756768206974656d206c656674000000000000000000000000600082015250565b7f4f776e61626c653a206e6577206f776e657220697320746865207a65726f206160008201527f6464726573730000000000000000000000000000000000000000000000000000602082015250565b7f596f7527766520616c7265616479206d696e74656420612043727970746f6c6960008201527f656e7a2120446f6e277420626520677265656479210000000000000000000000602082015250565b7f4552433732313a20746f6b656e20616c7265616479206d696e74656400000000600082015250565b7f4e6f742074686520676f6f642070726963650000000000000000000000000000600082015250565b7f57726f6e67206261746368206e756d6265720000000000000000000000000000600082015250565b7f4552433732313a207472616e7366657220746f20746865207a65726f2061646460008201527f7265737300000000000000000000000000000000000000000000000000000000602082015250565b7f4552433732313a20617070726f766520746f2063616c6c657200000000000000600082015250565b7f4552433732313a206f70657261746f7220717565727920666f72206e6f6e657860008201527f697374656e7420746f6b656e0000000000000000000000000000000000000000602082015250565b7f4552433732313a20617070726f76652063616c6c6572206973206e6f74206f7760008201527f6e6572206e6f7220617070726f76656420666f7220616c6c0000000000000000602082015250565b7f4552433732313a2062616c616e636520717565727920666f7220746865207a6560008201527f726f206164647265737300000000000000000000000000000000000000000000602082015250565b7f4552433732313a206f776e657220717565727920666f72206e6f6e657869737460008201527f656e7420746f6b656e0000000000000000000000000000000000000000000000602082015250565b7f45524337323155524953746f726167653a2055524920736574206f66206e6f6e60008201527f6578697374656e7420746f6b656e000000000000000000000000000000000000602082015250565b7f4552433732313a206d696e7420746f20746865207a65726f2061646472657373600082015250565b7f45524337323155524953746f726167653a2055524920717565727920666f722060008201527f6e6f6e6578697374656e7420746f6b656e000000000000000000000000000000602082015250565b7f4552433732313a20617070726f76656420717565727920666f72206e6f6e657860008201527f697374656e7420746f6b656e0000000000000000000000000000000000000000602082015250565b7f4f776e61626c653a2063616c6c6572206973206e6f7420746865206f776e6572600082015250565b7f4552433732313a207472616e73666572206f6620746f6b656e2074686174206960008201527f73206e6f74206f776e0000000000000000000000000000000000000000000000602082015250565b7f4552433732314d657461646174613a2055524920717565727920666f72206e6f60008201527f6e6578697374656e7420746f6b656e0000000000000000000000000000000000602082015250565b7f4d75737420626520746865206f776e657220746f2063616c6c2074686973206660008201527f756e6374696f6e00000000000000000000000000000000000000000000000000602082015250565b7f4552433732313a20617070726f76616c20746f2063757272656e74206f776e6560008201527f7200000000000000000000000000000000000000000000000000000000000000602082015250565b7f4552433732313a207472616e736665722063616c6c6572206973206e6f74206f60008201527f776e6572206e6f7220617070726f766564000000000000000000000000000000602082015250565b7f6e6f742073746172746564000000000000000000000000000000000000000000600082015250565b613eb481613594565b8114613ebf57600080fd5b50565b613ecb816135a6565b8114613ed657600080fd5b50565b613ee2816135b8565b8114613eed57600080fd5b50565b613ef9816135c4565b8114613f0457600080fd5b50565b613f1081613610565b8114613f1b57600080fd5b5056fea26469706673582212208090b211e853c3fb50e718c0eeaf2f9126ec740bb4c4272f3acfaea590c42d8f64736f6c63430008060033",
  "immutableReferences": {},
  "source": "// contracts/CryptoLiensNFT.sol\n// SPDX-License-Identifier: MIT\npragma solidity ^0.8.6;\n\nimport \"@openzeppelin/contracts/token/ERC721/extensions/ERC721URIStorage.sol\";\nimport \"@openzeppelin/contracts/utils/Counters.sol\";\nimport \"@openzeppelin/contracts/access/Ownable.sol\";\n\n\ncontract CryptoLienzNFT is ERC721URIStorage, Ownable {\n    using Counters for Counters.Counter;\n    Counters.Counter private _tokenIds;\n\n    address payable public minter;\n    uint256 public maxBatch = 5;\n    uint256 public maxMintcount = 5;\n    uint256 public totalCount = 200;\n    uint256 public price = 60000000000000000; // 0.06 eth\n\n    mapping(address => bool) public mintlist;\n\n    bool public started = false;\n\n    event MintNFT(address indexed _from, string url, uint256 times);\n\n    string private _uri = \"\";\n\n    modifier restricted() {\n      require(msg.sender == minter, \"Must be the owner to call this function\");\n      _;\n    }\n\n    constructor() ERC721(\"CryptoLienzNFT\", \"CLNFT\") {\n      minter = payable(msg.sender);\n    }\n\n    function mintNFT(uint256 _times) public payable {\n        require(started, \"not started\");\n        require(_times > 0 && _times <= maxBatch, \"Wrong batch number\");\n        require(_tokenIds.current() + _times <= totalCount, \"Not enough item left\");\n        require(msg.value == _times * price, \"Not the good price\");\n        require(mintlist[msg.sender] != true, \"You've already minted a Cryptolienz! Don't be greedy!\");\n        \n        mintlist[msg.sender] = true;\n\n        for(uint256 i = 0; i < _times; i++){\n            _tokenIds.increment();\n\n            uint256 newItemId = _tokenIds.current();\n            _mint(msg.sender, newItemId);\n            string memory url = string(abi.encodePacked(_uri, uint2str(newItemId)));\n\n            emit MintNFT(msg.sender, url, _times);\n\n            _setTokenURI(newItemId, url);\n        }\n    }\n\n    function totalSupply() public view virtual returns (uint256) {\n        return _tokenIds.current();\n    }\n\n    function withdraw(address payable _wallet) public payable restricted {\n        payable(_wallet).transfer(address(this).balance);\n    }\n        \n    function setStart(bool _start) public restricted {\n        started = _start;\n    }\n\n    function baseTokenURI() public view returns (string memory) {\n        return _uri;\n    }\n\n    function setBaseTokenURI(string memory _baseURI) public restricted {\n        _uri = _baseURI;\n    }\n\n    function uint2str(uint256 _i) internal pure returns (string memory str) {\n        if (_i == 0) {\n          return \"0\";\n        }\n        uint256 j = _i;\n        uint256 length;\n        while (j != 0) {\n          length++;\n          j /= 10;\n        }\n        bytes memory bstr = new bytes(length);\n        uint256 k = length;\n        j = _i;\n        while (j != 0) {\n          bstr[--k] = bytes1(uint8(48 + j % 10));\n          j /= 10;\n        }\n        str = string(bstr);\n        return str;\n    }\n}\n",
  "sourcePath": "/home/marc-olivier/Projects/cryptolienzContract/contracts/CryptoLienzNFT.sol",
  "compiler": {
    "name": "solc",
    "version": "0.8.6+commit.11564f7e.Emscripten.clang"
  },
  "schemaVersion": "3.4.1",
  "updatedAt": "2021-12-05T20:54:06.971Z",
  "networkType": "ethereum",
  "devdoc": {
    "kind": "dev",
    "methods": {
      "approve(address,uint256)": {
        "details": "See {IERC721-approve}."
      },
      "balanceOf(address)": {
        "details": "See {IERC721-balanceOf}."
      },
      "getApproved(uint256)": {
        "details": "See {IERC721-getApproved}."
      },
      "isApprovedForAll(address,address)": {
        "details": "See {IERC721-isApprovedForAll}."
      },
      "name()": {
        "details": "See {IERC721Metadata-name}."
      },
      "owner()": {
        "details": "Returns the address of the current owner."
      },
      "ownerOf(uint256)": {
        "details": "See {IERC721-ownerOf}."
      },
      "renounceOwnership()": {
        "details": "Leaves the contract without owner. It will not be possible to call `onlyOwner` functions anymore. Can only be called by the current owner. NOTE: Renouncing ownership will leave the contract without an owner, thereby removing any functionality that is only available to the owner."
      },
      "safeTransferFrom(address,address,uint256)": {
        "details": "See {IERC721-safeTransferFrom}."
      },
      "safeTransferFrom(address,address,uint256,bytes)": {
        "details": "See {IERC721-safeTransferFrom}."
      },
      "setApprovalForAll(address,bool)": {
        "details": "See {IERC721-setApprovalForAll}."
      },
      "supportsInterface(bytes4)": {
        "details": "See {IERC165-supportsInterface}."
      },
      "symbol()": {
        "details": "See {IERC721Metadata-symbol}."
      },
      "tokenURI(uint256)": {
        "details": "See {IERC721Metadata-tokenURI}."
      },
      "transferFrom(address,address,uint256)": {
        "details": "See {IERC721-transferFrom}."
      },
      "transferOwnership(address)": {
        "details": "Transfers ownership of the contract to a new account (`newOwner`). Can only be called by the current owner."
      }
    },
    "version": 1
  },
  "userdoc": {
    "kind": "user",
    "methods": {},
    "version": 1
  }
}