{
  "contractName": "CryptoLienzNFT",
  "abi": [
    {
      "inputs": [],
      "stateMutability": "nonpayable",
      "type": "constructor"
    },
    {
      "anonymous": false,
      "inputs": [
        {
          "indexed": true,
          "internalType": "address",
          "name": "owner",
          "type": "address"
        },
        {
          "indexed": true,
          "internalType": "address",
          "name": "approved",
          "type": "address"
        },
        {
          "indexed": true,
          "internalType": "uint256",
          "name": "tokenId",
          "type": "uint256"
        }
      ],
      "name": "Approval",
      "type": "event"
    },
    {
      "anonymous": false,
      "inputs": [
        {
          "indexed": true,
          "internalType": "address",
          "name": "owner",
          "type": "address"
        },
        {
          "indexed": true,
          "internalType": "address",
          "name": "operator",
          "type": "address"
        },
        {
          "indexed": false,
          "internalType": "bool",
          "name": "approved",
          "type": "bool"
        }
      ],
      "name": "ApprovalForAll",
      "type": "event"
    },
    {
      "anonymous": false,
      "inputs": [
        {
          "indexed": true,
          "internalType": "address",
          "name": "_from",
          "type": "address"
        },
        {
          "indexed": false,
          "internalType": "string",
          "name": "url",
          "type": "string"
        }
      ],
      "name": "MintNFT",
      "type": "event"
    },
    {
      "anonymous": false,
      "inputs": [
        {
          "indexed": true,
          "internalType": "address",
          "name": "previousOwner",
          "type": "address"
        },
        {
          "indexed": true,
          "internalType": "address",
          "name": "newOwner",
          "type": "address"
        }
      ],
      "name": "OwnershipTransferred",
      "type": "event"
    },
    {
      "anonymous": false,
      "inputs": [
        {
          "indexed": true,
          "internalType": "address",
          "name": "from",
          "type": "address"
        },
        {
          "indexed": true,
          "internalType": "address",
          "name": "to",
          "type": "address"
        },
        {
          "indexed": true,
          "internalType": "uint256",
          "name": "tokenId",
          "type": "uint256"
        }
      ],
      "name": "Transfer",
      "type": "event"
    },
    {
      "inputs": [
        {
          "internalType": "address",
          "name": "to",
          "type": "address"
        },
        {
          "internalType": "uint256",
          "name": "tokenId",
          "type": "uint256"
        }
      ],
      "name": "approve",
      "outputs": [],
      "stateMutability": "nonpayable",
      "type": "function"
    },
    {
      "inputs": [
        {
          "internalType": "address",
          "name": "owner",
          "type": "address"
        }
      ],
      "name": "balanceOf",
      "outputs": [
        {
          "internalType": "uint256",
          "name": "",
          "type": "uint256"
        }
      ],
      "stateMutability": "view",
      "type": "function",
      "constant": true
    },
    {
      "inputs": [
        {
          "internalType": "uint256",
          "name": "tokenId",
          "type": "uint256"
        }
      ],
      "name": "getApproved",
      "outputs": [
        {
          "internalType": "address",
          "name": "",
          "type": "address"
        }
      ],
      "stateMutability": "view",
      "type": "function",
      "constant": true
    },
    {
      "inputs": [
        {
          "internalType": "address",
          "name": "owner",
          "type": "address"
        },
        {
          "internalType": "address",
          "name": "operator",
          "type": "address"
        }
      ],
      "name": "isApprovedForAll",
      "outputs": [
        {
          "internalType": "bool",
          "name": "",
          "type": "bool"
        }
      ],
      "stateMutability": "view",
      "type": "function",
      "constant": true
    },
    {
      "inputs": [],
      "name": "name",
      "outputs": [
        {
          "internalType": "string",
          "name": "",
          "type": "string"
        }
      ],
      "stateMutability": "view",
      "type": "function",
      "constant": true
    },
    {
      "inputs": [],
      "name": "owner",
      "outputs": [
        {
          "internalType": "address",
          "name": "",
          "type": "address"
        }
      ],
      "stateMutability": "view",
      "type": "function",
      "constant": true
    },
    {
      "inputs": [
        {
          "internalType": "uint256",
          "name": "tokenId",
          "type": "uint256"
        }
      ],
      "name": "ownerOf",
      "outputs": [
        {
          "internalType": "address",
          "name": "",
          "type": "address"
        }
      ],
      "stateMutability": "view",
      "type": "function",
      "constant": true
    },
    {
      "inputs": [],
      "name": "renounceOwnership",
      "outputs": [],
      "stateMutability": "nonpayable",
      "type": "function"
    },
    {
      "inputs": [
        {
          "internalType": "address",
          "name": "from",
          "type": "address"
        },
        {
          "internalType": "address",
          "name": "to",
          "type": "address"
        },
        {
          "internalType": "uint256",
          "name": "tokenId",
          "type": "uint256"
        }
      ],
      "name": "safeTransferFrom",
      "outputs": [],
      "stateMutability": "nonpayable",
      "type": "function"
    },
    {
      "inputs": [
        {
          "internalType": "address",
          "name": "from",
          "type": "address"
        },
        {
          "internalType": "address",
          "name": "to",
          "type": "address"
        },
        {
          "internalType": "uint256",
          "name": "tokenId",
          "type": "uint256"
        },
        {
          "internalType": "bytes",
          "name": "_data",
          "type": "bytes"
        }
      ],
      "name": "safeTransferFrom",
      "outputs": [],
      "stateMutability": "nonpayable",
      "type": "function"
    },
    {
      "inputs": [
        {
          "internalType": "address",
          "name": "operator",
          "type": "address"
        },
        {
          "internalType": "bool",
          "name": "approved",
          "type": "bool"
        }
      ],
      "name": "setApprovalForAll",
      "outputs": [],
      "stateMutability": "nonpayable",
      "type": "function"
    },
    {
      "inputs": [
        {
          "internalType": "bytes4",
          "name": "interfaceId",
          "type": "bytes4"
        }
      ],
      "name": "supportsInterface",
      "outputs": [
        {
          "internalType": "bool",
          "name": "",
          "type": "bool"
        }
      ],
      "stateMutability": "view",
      "type": "function",
      "constant": true
    },
    {
      "inputs": [],
      "name": "symbol",
      "outputs": [
        {
          "internalType": "string",
          "name": "",
          "type": "string"
        }
      ],
      "stateMutability": "view",
      "type": "function",
      "constant": true
    },
    {
      "inputs": [
        {
          "internalType": "uint256",
          "name": "tokenId",
          "type": "uint256"
        }
      ],
      "name": "tokenURI",
      "outputs": [
        {
          "internalType": "string",
          "name": "",
          "type": "string"
        }
      ],
      "stateMutability": "view",
      "type": "function",
      "constant": true
    },
    {
      "inputs": [
        {
          "internalType": "address",
          "name": "from",
          "type": "address"
        },
        {
          "internalType": "address",
          "name": "to",
          "type": "address"
        },
        {
          "internalType": "uint256",
          "name": "tokenId",
          "type": "uint256"
        }
      ],
      "name": "transferFrom",
      "outputs": [],
      "stateMutability": "nonpayable",
      "type": "function"
    },
    {
      "inputs": [
        {
          "internalType": "address",
          "name": "newOwner",
          "type": "address"
        }
      ],
      "name": "transferOwnership",
      "outputs": [],
      "stateMutability": "nonpayable",
      "type": "function"
    },
    {
      "inputs": [],
      "name": "mintNFT",
      "outputs": [
        {
          "internalType": "uint256",
          "name": "",
          "type": "uint256"
        }
      ],
      "stateMutability": "nonpayable",
      "type": "function"
    }
  ],
  "bytecode": "0x60806040526040518060800160405280605081526020016200347f605091396009908051906020019062000035929190620001d8565b503480156200004357600080fd5b506040518060400160405280600e81526020017f43727970746f4c69656e7a4e46540000000000000000000000000000000000008152506040518060400160405280600581526020017f434c4e46540000000000000000000000000000000000000000000000000000008152508160009080519060200190620000c8929190620001d8565b508060019080519060200190620000e1929190620001d8565b50505062000104620000f86200010a60201b60201c565b6200011260201b60201c565b620002ed565b600033905090565b6000600760009054906101000a900473ffffffffffffffffffffffffffffffffffffffff16905081600760006101000a81548173ffffffffffffffffffffffffffffffffffffffff021916908373ffffffffffffffffffffffffffffffffffffffff1602179055508173ffffffffffffffffffffffffffffffffffffffff168173ffffffffffffffffffffffffffffffffffffffff167f8be0079c531659141344cd1fd0a4f28419497f9722a3daafe3b4186f6b6457e060405160405180910390a35050565b828054620001e69062000288565b90600052602060002090601f0160209004810192826200020a576000855562000256565b82601f106200022557805160ff191683800117855562000256565b8280016001018555821562000256579182015b828111156200025557825182559160200191906001019062000238565b5b50905062000265919062000269565b5090565b5b80821115620002845760008160009055506001016200026a565b5090565b60006002820490506001821680620002a157607f821691505b60208210811415620002b857620002b7620002be565b5b50919050565b7f4e487b7100000000000000000000000000000000000000000000000000000000600052602260045260246000fd5b61318280620002fd6000396000f3fe608060405234801561001057600080fd5b506004361061010b5760003560e01c806370a08231116100a2578063a22cb46511610071578063a22cb465146102a6578063b88d4fde146102c2578063c87b56dd146102de578063e985e9c51461030e578063f2fde38b1461033e5761010b565b806370a0823114610230578063715018a6146102605780638da5cb5b1461026a57806395d89b41146102885761010b565b806314f710fe116100de57806314f710fe146101aa57806323b872dd146101c857806342842e0e146101e45780636352211e146102005761010b565b806301ffc9a71461011057806306fdde0314610140578063081812fc1461015e578063095ea7b31461018e575b600080fd5b61012a60048036038101906101259190611fda565b61035a565b6040516101379190612503565b60405180910390f35b61014861043c565b604051610155919061251e565b60405180910390f35b61017860048036038101906101739190612034565b6104ce565b604051610185919061249c565b60405180910390f35b6101a860048036038101906101a39190611f9a565b610553565b005b6101b261066b565b6040516101bf9190612780565b60405180910390f35b6101e260048036038101906101dd9190611e84565b61071e565b005b6101fe60048036038101906101f99190611e84565b61077e565b005b61021a60048036038101906102159190612034565b61079e565b604051610227919061249c565b60405180910390f35b61024a60048036038101906102459190611e17565b610850565b6040516102579190612780565b60405180910390f35b610268610908565b005b610272610990565b60405161027f919061249c565b60405180910390f35b6102906109ba565b60405161029d919061251e565b60405180910390f35b6102c060048036038101906102bb9190611f5a565b610a4c565b005b6102dc60048036038101906102d79190611ed7565b610bcd565b005b6102f860048036038101906102f39190612034565b610c2f565b604051610305919061251e565b60405180910390f35b61032860048036038101906103239190611e44565b610d81565b6040516103359190612503565b60405180910390f35b61035860048036038101906103539190611e17565b610e15565b005b60007f80ac58cd000000000000000000000000000000000000000000000000000000007bffffffffffffffffffffffffffffffffffffffffffffffffffffffff1916827bffffffffffffffffffffffffffffffffffffffffffffffffffffffff1916148061042557507f5b5e139f000000000000000000000000000000000000000000000000000000007bffffffffffffffffffffffffffffffffffffffffffffffffffffffff1916827bffffffffffffffffffffffffffffffffffffffffffffffffffffffff1916145b80610435575061043482610f0d565b5b9050919050565b60606000805461044b906129e4565b80601f0160208091040260200160405190810160405280929190818152602001828054610477906129e4565b80156104c45780601f10610499576101008083540402835291602001916104c4565b820191906000526020600020905b8154815290600101906020018083116104a757829003601f168201915b5050505050905090565b60006104d982610f77565b610518576040517f08c379a000000000000000000000000000000000000000000000000000000000815260040161050f906126c0565b60405180910390fd5b6004600083815260200190815260200160002060009054906101000a900473ffffffffffffffffffffffffffffffffffffffff169050919050565b600061055e8261079e565b90508073ffffffffffffffffffffffffffffffffffffffff168373ffffffffffffffffffffffffffffffffffffffff1614156105cf576040517f08c379a00000000000000000000000000000000000000000000000000000000081526004016105c690612740565b60405180910390fd5b8073ffffffffffffffffffffffffffffffffffffffff166105ee610fe3565b73ffffffffffffffffffffffffffffffffffffffff16148061061d575061061c81610617610fe3565b610d81565b5b61065c576040517f08c379a000000000000000000000000000000000000000000000000000000000815260040161065390612600565b60405180910390fd5b6106668383610feb565b505050565b600061067760086110a4565b600061068360086110ba565b905061068f33826110c8565b6000600961069c83611296565b6040516020016106ad92919061246d565b60405160208183030381529060405290503373ffffffffffffffffffffffffffffffffffffffff167fa06b4ca1f56a77dde802d9670bc34c0fce1b29b95fcad5b6f4a0214107e1dc4882604051610704919061251e565b60405180910390a261071682826113fd565b819250505090565b61072f610729610fe3565b82611471565b61076e576040517f08c379a000000000000000000000000000000000000000000000000000000000815260040161076590612760565b60405180910390fd5b61077983838361154f565b505050565b61079983838360405180602001604052806000815250610bcd565b505050565b6000806002600084815260200190815260200160002060009054906101000a900473ffffffffffffffffffffffffffffffffffffffff169050600073ffffffffffffffffffffffffffffffffffffffff168173ffffffffffffffffffffffffffffffffffffffff161415610847576040517f08c379a000000000000000000000000000000000000000000000000000000000815260040161083e90612640565b60405180910390fd5b80915050919050565b60008073ffffffffffffffffffffffffffffffffffffffff168273ffffffffffffffffffffffffffffffffffffffff1614156108c1576040517f08c379a00000000000000000000000000000000000000000000000000000000081526004016108b890612620565b60405180910390fd5b600360008373ffffffffffffffffffffffffffffffffffffffff1673ffffffffffffffffffffffffffffffffffffffff168152602001908152602001600020549050919050565b610910610fe3565b73ffffffffffffffffffffffffffffffffffffffff1661092e610990565b73ffffffffffffffffffffffffffffffffffffffff1614610984576040517f08c379a000000000000000000000000000000000000000000000000000000000815260040161097b906126e0565b60405180910390fd5b61098e60006117ab565b565b6000600760009054906101000a900473ffffffffffffffffffffffffffffffffffffffff16905090565b6060600180546109c9906129e4565b80601f01602080910402602001604051908101604052809291908181526020018280546109f5906129e4565b8015610a425780601f10610a1757610100808354040283529160200191610a42565b820191906000526020600020905b815481529060010190602001808311610a2557829003601f168201915b5050505050905090565b610a54610fe3565b73ffffffffffffffffffffffffffffffffffffffff168273ffffffffffffffffffffffffffffffffffffffff161415610ac2576040517f08c379a0000000000000000000000000000000000000000000000000000000008152600401610ab9906125c0565b60405180910390fd5b8060056000610acf610fe3565b73ffffffffffffffffffffffffffffffffffffffff1673ffffffffffffffffffffffffffffffffffffffff16815260200190815260200160002060008473ffffffffffffffffffffffffffffffffffffffff1673ffffffffffffffffffffffffffffffffffffffff16815260200190815260200160002060006101000a81548160ff0219169083151502179055508173ffffffffffffffffffffffffffffffffffffffff16610b7c610fe3565b73ffffffffffffffffffffffffffffffffffffffff167f17307eab39ab6107e8899845ad3d59bd9653f200f220920489ca2b5937696c3183604051610bc19190612503565b60405180910390a35050565b610bde610bd8610fe3565b83611471565b610c1d576040517f08c379a0000000000000000000000000000000000000000000000000000000008152600401610c1490612760565b60405180910390fd5b610c2984848484611871565b50505050565b6060610c3a82610f77565b610c79576040517f08c379a0000000000000000000000000000000000000000000000000000000008152600401610c70906126a0565b60405180910390fd5b6000600660008481526020019081526020016000208054610c99906129e4565b80601f0160208091040260200160405190810160405280929190818152602001828054610cc5906129e4565b8015610d125780601f10610ce757610100808354040283529160200191610d12565b820191906000526020600020905b815481529060010190602001808311610cf557829003601f168201915b505050505090506000610d236118cd565b9050600081511415610d39578192505050610d7c565b600082511115610d6e578082604051602001610d56929190612449565b60405160208183030381529060405292505050610d7c565b610d77846118e4565b925050505b919050565b6000600560008473ffffffffffffffffffffffffffffffffffffffff1673ffffffffffffffffffffffffffffffffffffffff16815260200190815260200160002060008373ffffffffffffffffffffffffffffffffffffffff1673ffffffffffffffffffffffffffffffffffffffff16815260200190815260200160002060009054906101000a900460ff16905092915050565b610e1d610fe3565b73ffffffffffffffffffffffffffffffffffffffff16610e3b610990565b73ffffffffffffffffffffffffffffffffffffffff1614610e91576040517f08c379a0000000000000000000000000000000000000000000000000000000008152600401610e88906126e0565b60405180910390fd5b600073ffffffffffffffffffffffffffffffffffffffff168173ffffffffffffffffffffffffffffffffffffffff161415610f01576040517f08c379a0000000000000000000000000000000000000000000000000000000008152600401610ef890612560565b60405180910390fd5b610f0a816117ab565b50565b60007f01ffc9a7000000000000000000000000000000000000000000000000000000007bffffffffffffffffffffffffffffffffffffffffffffffffffffffff1916827bffffffffffffffffffffffffffffffffffffffffffffffffffffffff1916149050919050565b60008073ffffffffffffffffffffffffffffffffffffffff166002600084815260200190815260200160002060009054906101000a900473ffffffffffffffffffffffffffffffffffffffff1673ffffffffffffffffffffffffffffffffffffffff1614159050919050565b600033905090565b816004600083815260200190815260200160002060006101000a81548173ffffffffffffffffffffffffffffffffffffffff021916908373ffffffffffffffffffffffffffffffffffffffff160217905550808273ffffffffffffffffffffffffffffffffffffffff1661105e8361079e565b73ffffffffffffffffffffffffffffffffffffffff167f8c5be1e5ebec7d5bd14f71427d1e84f3dd0314c0f7b2291e5b200ac8c7c3b92560405160405180910390a45050565b6001816000016000828254019250508190555050565b600081600001549050919050565b600073ffffffffffffffffffffffffffffffffffffffff168273ffffffffffffffffffffffffffffffffffffffff161415611138576040517f08c379a000000000000000000000000000000000000000000000000000000000815260040161112f90612680565b60405180910390fd5b61114181610f77565b15611181576040517f08c379a000000000000000000000000000000000000000000000000000000000815260040161117890612580565b60405180910390fd5b61118d6000838361198b565b6001600360008473ffffffffffffffffffffffffffffffffffffffff1673ffffffffffffffffffffffffffffffffffffffff16815260200190815260200160002060008282546111dd9190612849565b92505081905550816002600083815260200190815260200160002060006101000a81548173ffffffffffffffffffffffffffffffffffffffff021916908373ffffffffffffffffffffffffffffffffffffffff160217905550808273ffffffffffffffffffffffffffffffffffffffff16600073ffffffffffffffffffffffffffffffffffffffff167fddf252ad1be2c89b69c2b068fc378daa952ba7f163c4a11628f55a4df523b3ef60405160405180910390a45050565b606060008214156112de576040518060400160405280600181526020017f300000000000000000000000000000000000000000000000000000000000000081525090506113f8565b600082905060005b600082146113105780806112f990612a47565b915050600a82611309919061289f565b91506112e6565b60008167ffffffffffffffff81111561132c5761132b612b7d565b5b6040519080825280601f01601f19166020018201604052801561135e5781602001600182028036833780820191505090505b50905060008290508593505b600084146113f057600a8461137f9190612a90565b603061138b9190612849565b60f81b8282611399906129ba565b925082815181106113ad576113ac612b4e565b5b60200101907effffffffffffffffffffffffffffffffffffffffffffffffffffffffffffff1916908160001a905350600a846113e9919061289f565b935061136a565b819450505050505b919050565b61140682610f77565b611445576040517f08c379a000000000000000000000000000000000000000000000000000000000815260040161143c90612660565b60405180910390fd5b8060066000848152602001908152602001600020908051906020019061146c929190611c9b565b505050565b600061147c82610f77565b6114bb576040517f08c379a00000000000000000000000000000000000000000000000000000000081526004016114b2906125e0565b60405180910390fd5b60006114c68361079e565b90508073ffffffffffffffffffffffffffffffffffffffff168473ffffffffffffffffffffffffffffffffffffffff16148061153557508373ffffffffffffffffffffffffffffffffffffffff1661151d846104ce565b73ffffffffffffffffffffffffffffffffffffffff16145b8061154657506115458185610d81565b5b91505092915050565b8273ffffffffffffffffffffffffffffffffffffffff1661156f8261079e565b73ffffffffffffffffffffffffffffffffffffffff16146115c5576040517f08c379a00000000000000000000000000000000000000000000000000000000081526004016115bc90612700565b60405180910390fd5b600073ffffffffffffffffffffffffffffffffffffffff168273ffffffffffffffffffffffffffffffffffffffff161415611635576040517f08c379a000000000000000000000000000000000000000000000000000000000815260040161162c906125a0565b60405180910390fd5b61164083838361198b565b61164b600082610feb565b6001600360008573ffffffffffffffffffffffffffffffffffffffff1673ffffffffffffffffffffffffffffffffffffffff168152602001908152602001600020600082825461169b91906128d0565b925050819055506001600360008473ffffffffffffffffffffffffffffffffffffffff1673ffffffffffffffffffffffffffffffffffffffff16815260200190815260200160002060008282546116f29190612849565b92505081905550816002600083815260200190815260200160002060006101000a81548173ffffffffffffffffffffffffffffffffffffffff021916908373ffffffffffffffffffffffffffffffffffffffff160217905550808273ffffffffffffffffffffffffffffffffffffffff168473ffffffffffffffffffffffffffffffffffffffff167fddf252ad1be2c89b69c2b068fc378daa952ba7f163c4a11628f55a4df523b3ef60405160405180910390a4505050565b6000600760009054906101000a900473ffffffffffffffffffffffffffffffffffffffff16905081600760006101000a81548173ffffffffffffffffffffffffffffffffffffffff021916908373ffffffffffffffffffffffffffffffffffffffff1602179055508173ffffffffffffffffffffffffffffffffffffffff168173ffffffffffffffffffffffffffffffffffffffff167f8be0079c531659141344cd1fd0a4f28419497f9722a3daafe3b4186f6b6457e060405160405180910390a35050565b61187c84848461154f565b61188884848484611990565b6118c7576040517f08c379a00000000000000000000000000000000000000000000000000000000081526004016118be90612540565b60405180910390fd5b50505050565b606060405180602001604052806000815250905090565b60606118ef82610f77565b61192e576040517f08c379a000000000000000000000000000000000000000000000000000000000815260040161192590612720565b60405180910390fd5b60006119386118cd565b905060008151116119585760405180602001604052806000815250611983565b8061196284611b27565b604051602001611973929190612449565b6040516020818303038152906040525b915050919050565b505050565b60006119b18473ffffffffffffffffffffffffffffffffffffffff16611c88565b15611b1a578373ffffffffffffffffffffffffffffffffffffffff1663150b7a026119da610fe3565b8786866040518563ffffffff1660e01b81526004016119fc94939291906124b7565b602060405180830381600087803b158015611a1657600080fd5b505af1925050508015611a4757506040513d601f19601f82011682018060405250810190611a449190612007565b60015b611aca573d8060008114611a77576040519150601f19603f3d011682016040523d82523d6000602084013e611a7c565b606091505b50600081511415611ac2576040517f08c379a0000000000000000000000000000000000000000000000000000000008152600401611ab990612540565b60405180910390fd5b805181602001fd5b63150b7a0260e01b7bffffffffffffffffffffffffffffffffffffffffffffffffffffffff1916817bffffffffffffffffffffffffffffffffffffffffffffffffffffffff191614915050611b1f565b600190505b949350505050565b60606000821415611b6f576040518060400160405280600181526020017f30000000000000000000000000000000000000000000000000000000000000008152509050611c83565b600082905060005b60008214611ba1578080611b8a90612a47565b915050600a82611b9a919061289f565b9150611b77565b60008167ffffffffffffffff811115611bbd57611bbc612b7d565b5b6040519080825280601f01601f191660200182016040528015611bef5781602001600182028036833780820191505090505b5090505b60008514611c7c57600182611c0891906128d0565b9150600a85611c179190612a90565b6030611c239190612849565b60f81b818381518110611c3957611c38612b4e565b5b60200101907effffffffffffffffffffffffffffffffffffffffffffffffffffffffffffff1916908160001a905350600a85611c75919061289f565b9450611bf3565b8093505050505b919050565b600080823b905060008111915050919050565b828054611ca7906129e4565b90600052602060002090601f016020900481019282611cc95760008555611d10565b82601f10611ce257805160ff1916838001178555611d10565b82800160010185558215611d10579182015b82811115611d0f578251825591602001919060010190611cf4565b5b509050611d1d9190611d21565b5090565b5b80821115611d3a576000816000905550600101611d22565b5090565b6000611d51611d4c846127c0565b61279b565b905082815260208101848484011115611d6d57611d6c612bb1565b5b611d78848285612978565b509392505050565b600081359050611d8f816130f0565b92915050565b600081359050611da481613107565b92915050565b600081359050611db98161311e565b92915050565b600081519050611dce8161311e565b92915050565b600082601f830112611de957611de8612bac565b5b8135611df9848260208601611d3e565b91505092915050565b600081359050611e1181613135565b92915050565b600060208284031215611e2d57611e2c612bbb565b5b6000611e3b84828501611d80565b91505092915050565b60008060408385031215611e5b57611e5a612bbb565b5b6000611e6985828601611d80565b9250506020611e7a85828601611d80565b9150509250929050565b600080600060608486031215611e9d57611e9c612bbb565b5b6000611eab86828701611d80565b9350506020611ebc86828701611d80565b9250506040611ecd86828701611e02565b9150509250925092565b60008060008060808587031215611ef157611ef0612bbb565b5b6000611eff87828801611d80565b9450506020611f1087828801611d80565b9350506040611f2187828801611e02565b925050606085013567ffffffffffffffff811115611f4257611f41612bb6565b5b611f4e87828801611dd4565b91505092959194509250565b60008060408385031215611f7157611f70612bbb565b5b6000611f7f85828601611d80565b9250506020611f9085828601611d95565b9150509250929050565b60008060408385031215611fb157611fb0612bbb565b5b6000611fbf85828601611d80565b9250506020611fd085828601611e02565b9150509250929050565b600060208284031215611ff057611fef612bbb565b5b6000611ffe84828501611daa565b91505092915050565b60006020828403121561201d5761201c612bbb565b5b600061202b84828501611dbf565b91505092915050565b60006020828403121561204a57612049612bbb565b5b600061205884828501611e02565b91505092915050565b61206a81612904565b82525050565b61207981612916565b82525050565b600061208a82612806565b612094818561281c565b93506120a4818560208601612987565b6120ad81612bc0565b840191505092915050565b60006120c382612811565b6120cd818561282d565b93506120dd818560208601612987565b6120e681612bc0565b840191505092915050565b60006120fc82612811565b612106818561283e565b9350612116818560208601612987565b80840191505092915050565b6000815461212f816129e4565b612139818661283e565b94506001821660008114612154576001811461216557612198565b60ff19831686528186019350612198565b61216e856127f1565b60005b8381101561219057815481890152600182019150602081019050612171565b838801955050505b50505092915050565b60006121ae60328361282d565b91506121b982612bd1565b604082019050919050565b60006121d160268361282d565b91506121dc82612c20565b604082019050919050565b60006121f4601c8361282d565b91506121ff82612c6f565b602082019050919050565b600061221760248361282d565b915061222282612c98565b604082019050919050565b600061223a60198361282d565b915061224582612ce7565b602082019050919050565b600061225d602c8361282d565b915061226882612d10565b604082019050919050565b600061228060388361282d565b915061228b82612d5f565b604082019050919050565b60006122a3602a8361282d565b91506122ae82612dae565b604082019050919050565b60006122c660298361282d565b91506122d182612dfd565b604082019050919050565b60006122e9602e8361282d565b91506122f482612e4c565b604082019050919050565b600061230c60208361282d565b915061231782612e9b565b602082019050919050565b600061232f60318361282d565b915061233a82612ec4565b604082019050919050565b6000612352602c8361282d565b915061235d82612f13565b604082019050919050565b600061237560058361283e565b915061238082612f62565b600582019050919050565b600061239860208361282d565b91506123a382612f8b565b602082019050919050565b60006123bb60298361282d565b91506123c682612fb4565b604082019050919050565b60006123de602f8361282d565b91506123e982613003565b604082019050919050565b600061240160218361282d565b915061240c82613052565b604082019050919050565b600061242460318361282d565b915061242f826130a1565b604082019050919050565b6124438161296e565b82525050565b600061245582856120f1565b915061246182846120f1565b91508190509392505050565b60006124798285612122565b915061248582846120f1565b915061249082612368565b91508190509392505050565b60006020820190506124b16000830184612061565b92915050565b60006080820190506124cc6000830187612061565b6124d96020830186612061565b6124e6604083018561243a565b81810360608301526124f8818461207f565b905095945050505050565b60006020820190506125186000830184612070565b92915050565b6000602082019050818103600083015261253881846120b8565b905092915050565b60006020820190508181036000830152612559816121a1565b9050919050565b60006020820190508181036000830152612579816121c4565b9050919050565b60006020820190508181036000830152612599816121e7565b9050919050565b600060208201905081810360008301526125b98161220a565b9050919050565b600060208201905081810360008301526125d98161222d565b9050919050565b600060208201905081810360008301526125f981612250565b9050919050565b6000602082019050818103600083015261261981612273565b9050919050565b6000602082019050818103600083015261263981612296565b9050919050565b60006020820190508181036000830152612659816122b9565b9050919050565b60006020820190508181036000830152612679816122dc565b9050919050565b60006020820190508181036000830152612699816122ff565b9050919050565b600060208201905081810360008301526126b981612322565b9050919050565b600060208201905081810360008301526126d981612345565b9050919050565b600060208201905081810360008301526126f98161238b565b9050919050565b60006020820190508181036000830152612719816123ae565b9050919050565b60006020820190508181036000830152612739816123d1565b9050919050565b60006020820190508181036000830152612759816123f4565b9050919050565b6000602082019050818103600083015261277981612417565b9050919050565b6000602082019050612795600083018461243a565b92915050565b60006127a56127b6565b90506127b18282612a16565b919050565b6000604051905090565b600067ffffffffffffffff8211156127db576127da612b7d565b5b6127e482612bc0565b9050602081019050919050565b60008190508160005260206000209050919050565b600081519050919050565b600081519050919050565b600082825260208201905092915050565b600082825260208201905092915050565b600081905092915050565b60006128548261296e565b915061285f8361296e565b9250827fffffffffffffffffffffffffffffffffffffffffffffffffffffffffffffffff0382111561289457612893612ac1565b5b828201905092915050565b60006128aa8261296e565b91506128b58361296e565b9250826128c5576128c4612af0565b5b828204905092915050565b60006128db8261296e565b91506128e68361296e565b9250828210156128f9576128f8612ac1565b5b828203905092915050565b600061290f8261294e565b9050919050565b60008115159050919050565b60007fffffffff0000000000000000000000000000000000000000000000000000000082169050919050565b600073ffffffffffffffffffffffffffffffffffffffff82169050919050565b6000819050919050565b82818337600083830152505050565b60005b838110156129a557808201518184015260208101905061298a565b838111156129b4576000848401525b50505050565b60006129c58261296e565b915060008214156129d9576129d8612ac1565b5b600182039050919050565b600060028204905060018216806129fc57607f821691505b60208210811415612a1057612a0f612b1f565b5b50919050565b612a1f82612bc0565b810181811067ffffffffffffffff82111715612a3e57612a3d612b7d565b5b80604052505050565b6000612a528261296e565b91507fffffffffffffffffffffffffffffffffffffffffffffffffffffffffffffffff821415612a8557612a84612ac1565b5b600182019050919050565b6000612a9b8261296e565b9150612aa68361296e565b925082612ab657612ab5612af0565b5b828206905092915050565b7f4e487b7100000000000000000000000000000000000000000000000000000000600052601160045260246000fd5b7f4e487b7100000000000000000000000000000000000000000000000000000000600052601260045260246000fd5b7f4e487b7100000000000000000000000000000000000000000000000000000000600052602260045260246000fd5b7f4e487b7100000000000000000000000000000000000000000000000000000000600052603260045260246000fd5b7f4e487b7100000000000000000000000000000000000000000000000000000000600052604160045260246000fd5b600080fd5b600080fd5b600080fd5b600080fd5b6000601f19601f8301169050919050565b7f4552433732313a207472616e7366657220746f206e6f6e20455243373231526560008201527f63656976657220696d706c656d656e7465720000000000000000000000000000602082015250565b7f4f776e61626c653a206e6577206f776e657220697320746865207a65726f206160008201527f6464726573730000000000000000000000000000000000000000000000000000602082015250565b7f4552433732313a20746f6b656e20616c7265616479206d696e74656400000000600082015250565b7f4552433732313a207472616e7366657220746f20746865207a65726f2061646460008201527f7265737300000000000000000000000000000000000000000000000000000000602082015250565b7f4552433732313a20617070726f766520746f2063616c6c657200000000000000600082015250565b7f4552433732313a206f70657261746f7220717565727920666f72206e6f6e657860008201527f697374656e7420746f6b656e0000000000000000000000000000000000000000602082015250565b7f4552433732313a20617070726f76652063616c6c6572206973206e6f74206f7760008201527f6e6572206e6f7220617070726f76656420666f7220616c6c0000000000000000602082015250565b7f4552433732313a2062616c616e636520717565727920666f7220746865207a6560008201527f726f206164647265737300000000000000000000000000000000000000000000602082015250565b7f4552433732313a206f776e657220717565727920666f72206e6f6e657869737460008201527f656e7420746f6b656e0000000000000000000000000000000000000000000000602082015250565b7f45524337323155524953746f726167653a2055524920736574206f66206e6f6e60008201527f6578697374656e7420746f6b656e000000000000000000000000000000000000602082015250565b7f4552433732313a206d696e7420746f20746865207a65726f2061646472657373600082015250565b7f45524337323155524953746f726167653a2055524920717565727920666f722060008201527f6e6f6e6578697374656e7420746f6b656e000000000000000000000000000000602082015250565b7f4552433732313a20617070726f76656420717565727920666f72206e6f6e657860008201527f697374656e7420746f6b656e0000000000000000000000000000000000000000602082015250565b7f2e6a736f6e000000000000000000000000000000000000000000000000000000600082015250565b7f4f776e61626c653a2063616c6c6572206973206e6f7420746865206f776e6572600082015250565b7f4552433732313a207472616e73666572206f6620746f6b656e2074686174206960008201527f73206e6f74206f776e0000000000000000000000000000000000000000000000602082015250565b7f4552433732314d657461646174613a2055524920717565727920666f72206e6f60008201527f6e6578697374656e7420746f6b656e0000000000000000000000000000000000602082015250565b7f4552433732313a20617070726f76616c20746f2063757272656e74206f776e6560008201527f7200000000000000000000000000000000000000000000000000000000000000602082015250565b7f4552433732313a207472616e736665722063616c6c6572206973206e6f74206f60008201527f776e6572206e6f7220617070726f766564000000000000000000000000000000602082015250565b6130f981612904565b811461310457600080fd5b50565b61311081612916565b811461311b57600080fd5b50565b61312781612922565b811461313257600080fd5b50565b61313e8161296e565b811461314957600080fd5b5056fea26469706673582212207abfdb2f00a74b98a261bb3d76c73554bfb0f9419490f4e41c401d74b1f30eb864736f6c6343000806003368747470733a2f2f676174657761792e70696e6174612e636c6f75642f697066732f516d59456963377a3939376662614d7176374c4e587332474866647537447648785273475876484237774b586b6d",
  "immutableReferences": {},
  "source": "// contracts/CryptoLiensNFT.sol\n// SPDX-License-Identifier: MIT\npragma solidity ^0.8.6;\n\nimport \"@openzeppelin/contracts/token/ERC721/extensions/ERC721URIStorage.sol\";\nimport \"@openzeppelin/contracts/utils/Counters.sol\";\nimport \"@openzeppelin/contracts/access/Ownable.sol\";\n\n\ncontract CryptoLienzNFT is ERC721URIStorage, Ownable {\n    using Counters for Counters.Counter;\n    Counters.Counter private _tokenIds;\n    string private uri = \"https://gateway.pinata.cloud/ipfs/QmYEic7z997fbaMqv7LNXs2GHfdu7DvHxRsGXvHB7wKXkm\";\n\n    constructor() ERC721(\"CryptoLienzNFT\", \"CLNFT\") {}\n    event MintNFT(address indexed _from, string url);\n\n\n    function mintNFT()\n        public\n        returns (uint256)\n    {\n        _tokenIds.increment();\n\n        uint256 newItemId = _tokenIds.current();\n        _mint(msg.sender, newItemId);\n        string memory url = string(abi.encodePacked(uri, uint2str(newItemId), \".json\"));\n\n        emit MintNFT(msg.sender, url);\n\n        _setTokenURI(newItemId, url);\n\n        return newItemId;\n    }\n\n    function uint2str(uint256 _i) internal pure returns (string memory str) {\n        if (_i == 0) {\n          return \"0\";\n        }\n        uint256 j = _i;\n        uint256 length;\n        while (j != 0) {\n          length++;\n          j /= 10;\n        }\n        bytes memory bstr = new bytes(length);\n        uint256 k = length;\n        j = _i;\n        while (j != 0) {\n          bstr[--k] = bytes1(uint8(48 + j % 10));\n          j /= 10;\n        }\n        str = string(bstr);\n        return str;\n    }\n}\n\n// const contract = await CryptoLienzNFT.deployed();\n\n// contract.awardItem(\"0x63126293FA2E90d87aCF90A79134A2761943136b\", \"https://upload.wikimedia.org/wikipedia/commons/thumb/0/05/Ethereum_logo_2014.svg/256px-Ethereum_logo_2014.svg.png\")",
  "sourcePath": "/home/marc-olivier/Projects/cryptolienzContract/contracts/CryptoLienzNFT.sol",
  "compiler": {
    "name": "solc",
    "version": "0.8.6+commit.11564f7e.Emscripten.clang"
  },
  "schemaVersion": "3.4.1",
  "updatedAt": "2021-11-25T03:12:16.587Z",
  "networkType": "ethereum",
  "devdoc": {
    "kind": "dev",
    "methods": {
      "approve(address,uint256)": {
        "details": "See {IERC721-approve}."
      },
      "balanceOf(address)": {
        "details": "See {IERC721-balanceOf}."
      },
      "getApproved(uint256)": {
        "details": "See {IERC721-getApproved}."
      },
      "isApprovedForAll(address,address)": {
        "details": "See {IERC721-isApprovedForAll}."
      },
      "name()": {
        "details": "See {IERC721Metadata-name}."
      },
      "owner()": {
        "details": "Returns the address of the current owner."
      },
      "ownerOf(uint256)": {
        "details": "See {IERC721-ownerOf}."
      },
      "renounceOwnership()": {
        "details": "Leaves the contract without owner. It will not be possible to call `onlyOwner` functions anymore. Can only be called by the current owner. NOTE: Renouncing ownership will leave the contract without an owner, thereby removing any functionality that is only available to the owner."
      },
      "safeTransferFrom(address,address,uint256)": {
        "details": "See {IERC721-safeTransferFrom}."
      },
      "safeTransferFrom(address,address,uint256,bytes)": {
        "details": "See {IERC721-safeTransferFrom}."
      },
      "setApprovalForAll(address,bool)": {
        "details": "See {IERC721-setApprovalForAll}."
      },
      "supportsInterface(bytes4)": {
        "details": "See {IERC165-supportsInterface}."
      },
      "symbol()": {
        "details": "See {IERC721Metadata-symbol}."
      },
      "tokenURI(uint256)": {
        "details": "See {IERC721Metadata-tokenURI}."
      },
      "transferFrom(address,address,uint256)": {
        "details": "See {IERC721-transferFrom}."
      },
      "transferOwnership(address)": {
        "details": "Transfers ownership of the contract to a new account (`newOwner`). Can only be called by the current owner."
      }
    },
    "version": 1
  },
  "userdoc": {
    "kind": "user",
    "methods": {},
    "version": 1
  }
}